:040000003AEF00F0E3
:100008005B82FACF03F0FBCF04F0F2AC0EEF00F006
:1000180010EF00F034EF00F076AC15EF00F017EFBA
:1000280000F022EF00F077AC1CEF00F01EEF00F0BC
:1000380022EF00F0F3EC13F034EF00F09DA027EF6F
:1000480000F029EF00F034EF00F09EA02EEF00F052
:1000580030EF00F034EF00F072EC13F034EF00F002
:1000680004C0FBFF03C0FAFF5B921100E2EF13F03C
:101000000050726F74656374696F6E3A204F4E20A2
:101010000050726F74656374696F6E3A204F464674
:101020000042617474657269653A2025642000533A
:10103000797374656D653A204F4E2000537973744F
:10104000656D653A204F46460043414E2052454368
:1010500045495645520042617474657269653A208B
:101060000053797374656D653A2000457461743A74
:10107000204F4E2000457461743A204F4646004D83
:101080006F64653A2000457461743A20000003ECF7
:1010900014F0840E056E280E066E29EC14F0F28E04
:1010A000F28C600E606EA00E0001A16F010EA26FA7
:1010B000000EA36F000EA46F010EA56F000EA66FA9
:1010C000000EAF6F000EB06F000EB16F000EB26F6A
:1010D000000EB36F000EB46FFE0E10EC14F0410E54
:1010E00010EC14F0FE0E10EC14F0510E10EC14F095
:1010F000FE0E10EC14F0460E10EC14F0490E000138
:10110000976F100E986FBAEC13F01A0E00019E6FD5
:101110005E0E9D6F6E0EE82EFED79D2FFCD79E2F84
:10112000FAD700F0AE0E186E000E196EFDEC0CF042
:101130000009D8B49EEF08F0A0EF08F092EF08F095
:10114000FE0E10EC14F0450E10EC14F0000E10EC36
:1011500014F0860E0001976F100E986FBAEC13F022
:10116000FE0E10EC14F0450E10EC14F0400E10ECD6
:1011700014F07F0E0001976F100E986FBAEC13F009
:10118000FE0E10EC14F0450E10EC14F0540E10ECA2
:1011900014F0610E0001976F100E986FBAEC13F007
:1011A000FE0E10EC14F0450E10EC14F0140E10ECC2
:1011B00014F0560E0001976F100E986FBAEC13F0F2
:1011C000030E000168196911D8A4E9EF08F0EBEFEC
:1011D00008F025EF09F080A0F0EF08F0F2EF08F03A
:1011E0000DEF09F0FE0E10EC14F0450E10EC14F0AB
:1011F000000E10EC14F0750E0001976F100E986F32
:10120000BAEC13F08B968B84000E00016B6F000E0E
:101210006A6F000EA66F25EF09F0FE0E10EC14F0B9
:10122000450E10EC14F0000E10EC14F06B0E0001E3
:10123000976F100E986FBAEC13F08B948B860001A9
:10124000A669000E6B6F010E6A6F6E05D8A42BEFB6
:1012500009F02DEF09F036EF09F0A00E176E000E21
:10126000186E32EC0AF0000E00016E6FAE0E186EB2
:10127000000E196EFDEC0CF00009D8B442EF09F035
:1012800044EF09F0E0EF08F00001B005AF11B11133
:10129000B211D8A44EEF09F050EF09F083EF09F036
:1012A000B451D8B456EF09F058EF09F06AEF09F0DD
:1012B000FE0E10EC14F0450E10EC14F0400E10EC85
:1012C00014F0010E0001976F100E986FBAEC13F036
:1012D000E0EF08F0FE0E10EC14F0450E10EC14F0E8
:1012E000400E10EC14F0110E0001976F100E986F65
:1012F000BAEC13F0000E0001696F010E686FE0EFA9
:1013000008F0E0EF08F0200EAF1908E1B005B111C8
:10131000B211D8A48EEF09F090EF09F0D3EF09F0E5
:10132000020E68196911D8A498EF09F09AEF09F034
:10133000E0EF08F0B429D8A4A0EF09F0A2EF09F07B
:10134000B4EF09F0FE0E10EC14F0450E10EC14F0A2
:10135000540E10EC14F03C0E0001976F100E986FB5
:10136000BAEC13F0E0EF08F0B451D8A4BAEF09F0EA
:10137000BCEF09F081EF09F0FE0E10EC14F0450E01
:1013800010EC14F0540E10EC14F02F0E0001976FB7
:10139000100E986FBAEC13F0000E0001696F030E87
:1013A000686FE0EF08F0800EAF1908E1B005B111E9
:1013B000B211D8A4DEEF09F0E0EF09F081EF09F0F7
:1013C000B4C09FF0FE0E10EC14F0450E10EC14F0BB
:1013D000140E10EC14F0210E0001976F100E986F90
:1013E0009FC099F09A6BBAEC13F00001680569117F
:1013F000D8A4FDEF09F0FFEF09F0E0EF08F0030ECD
:101400009F6105EF0AF007EF0AF019EF0AF0FE0EF0
:1014100010EC14F0450E10EC14F0000E10EC14F06B
:10142000750E0001976F100E986FBAEC13F0E0EF95
:1014300008F0FE0E10EC14F0450E10EC14F0000E47
:1014400010EC14F06B0E0001976F100E986FBAEC51
:1014500013F0000E0001696F020E686FE0EF08F0F4
:101460003AEF00F0000E196E000E1A6E000E1B6EA1
:10147000000E1C6E0F0120B740EF0AF042EF0AF099
:10148000BCEF0AF020EE01F01750D9261850DA22EE
:10149000DECF05F0DECF06F0DECF07F0DECF08F0BE
:1014A00017C0D9FF18C0DAFFDF50096E190E0A6E97
:1014B000000E0B6E1A0E0C6E000E0D6E1B0E0E6ED5
:1014C000000E0F6E1C0E106E000E116EEBEC0EF087
:1014D00019C023FF1AC024FF1BC021FF1CC022FF1C
:1014E00020EE05F01750D9261850DA22DF500F01F0
:1014F000256F20EE06F01750D9261850DA22DF505B
:10150000266F20EE07F01750D9261850DA22DF5048
:10151000276F20EE08F01750D9261850DA22DF5036
:10152000286F20EE09F01750D9261850DA22DF5024
:10153000296F20EE0AF01750D9261850DA22DF5012
:101540002A6F20EE0BF01750D9261850DA22DF5000
:101550002B6F20EE0CF01750D9261850DA22DF50EE
:101560002C6F20EE0DF01750D9261850DA22DF50DC
:101570002D6F2087BEEF0BF010B7C1EF0AF0C3EF5D
:101580000AF03DEF0BF020EE01F01750D92618506D
:10159000DA22DECF05F0DECF06F0DECF07F0DECFB9
:1015A00008F017C0D9FF18C0DAFFDF50096E190E16
:1015B0000A6E000E0B6E1A0E0C6E000E0D6E1B0ED8
:1015C0000E6E000E0F6E1C0E106E000E116EEBEC08
:1015D0000EF019C013FF1AC014FF1BC011FF1CC06E
:1015E00012FF20EE05F01750D9261850DA22DF50EE
:1015F0000F01156F20EE06F01750D9261850DA2289
:10160000DF50166F20EE07F01750D9261850DA2257
:10161000DF50176F20EE08F01750D9261850DA2245
:10162000DF50186F20EE09F01750D9261850DA2233
:10163000DF50196F20EE0AF01750D9261850DA2221
:10164000DF501A6F20EE0BF01750D9261850DA220F
:10165000DF501B6F20EE0CF01750D9261850DA22FD
:10166000DF501C6F20EE0DF01750D9261850DA22EB
:10167000DF501D6F1087BAEF0AF000B742EF0BF092
:1016800044EF0BF0BEEF0BF020EE01F01750D9261F
:101690001850DA22DECF05F0DECF06F0DECF07F0FD
:1016A000DECF08F017C0D9FF18C0DAFFDF50096E8F
:1016B000190E0A6E000E0B6E1A0E0C6E000E0D6ED9
:1016C0001B0E0E6E000E0F6E1C0E106E000E116EB5
:1016D000EBEC0EF019C003FF1AC004FF1BC001FFA2
:1016E0001CC002FF20EE05F01750D9261850DA2250
:1016F000DF500F01056F20EE06F01750D926185065
:10170000DA22DF50066F20EE07F01750D926185066
:10171000DA22DF50076F20EE08F01750D926185054
:10172000DA22DF50086F20EE09F01750D926185042
:10173000DA22DF50096F20EE0AF01750D926185030
:10174000DA22DF500A6F20EE0BF01750D92618501E
:10175000DA22DF500B6F20EE0CF01750D92618500C
:10176000DA22DF500C6F20EE0DF01750D9261850FA
:10177000DA22DF500D6F0087BAEF0AF0120024C0A2
:101780003AF025C03BF026C03CF027C03DF028C011
:101790003EF029C03FF02AC040F02BC041F041BECE
:1017A000D4EF0BF0D7EF0BF0010ED8EF0BF0000EDB
:1017B000426E4250D8B4DFEF0BF0E1EF0BF0F1EFE7
:1017C0000BF0411E401E3F1E3E1E3D1E3C1E3B1E9A
:1017D0003A6C000E3B223C223D223E223F22402218
:1017E0004122000163BFFFEF0BF0635106E1620588
:1017F000D8B0FDEF0BF0FFEF0BF005EF0CF0000E93
:10180000376E010E366E09EF0CF062C036F063C021
:1018100037F060C038F061C039F04250D8B413EFEF
:101820000CF015EF0CF02CEF0CF03806D8A03906B0
:101830004250D8A41EEF0CF020EF0CF026EF0CF075
:10184000000E356E2B0E346E2AEF0CF0000E356E46
:101850002D0E346E34C042F0000E446E1F0E436EE7
:10186000000E8E6FB0EF0CF04306D8A044066F0E4A
:101870004324D96E000E4420DA6E3AC005F03BC016
:1018800006F03CC007F03DC008F03EC009F03FC084
:101890000AF040C00BF041C00CF00A0E0D6E000EB5
:1018A0000E6E000E0F6E000E106E000E116E000E0A
:1018B000126E000E136E000E146EA5EC0FF005C034
:1018C0002CF006C02DF007C02EF008C02FF009C084
:1018D00030F00AC031F00BC032F00CC033F02CC035
:1018E00017F02DC018F016EC13F01750300FDF6E04
:1018F0003606D8A037063806D8A039063AC005F013
:101900003BC006F03CC007F03DC008F03EC009F007
:101910003FC00AF040C00BF041C00CF00A0E0D6E43
:10192000000E0E6E000E0F6E000E106E000E116E89
:10193000000E126E000E136E000E146E27EC0EF0E9
:1019400005C03AF006C03BF007C03CF008C03DF0CF
:1019500009C03EF00AC03FF00BC040F00CC041F09F
:1019600044BEBBEF0CF0445008E14304D8A0BBEFE9
:101970000CF0BDEF0CF0D9EF0CF03A503B103C10DE
:101980003D103E103F1040104110D8A4CAEF0CF09B
:10199000CCEF0CF034EF0CF037BED9EF0CF0375031
:1019A00006E13604D8B0D7EF0CF0D9EF0CF034EFE5
:1019B0000CF04250D8B4DFEF0CF0E1EF0CF0ECEF9C
:1019C0000CF04306D8A044066F0E4324D96E000ED7
:1019D0004420DA6E42C0DFFF22C017F023C018F0A7
:1019E0006F0E4324196E000E44201A6E38C01BF08F
:1019F00039C01CF053EC12F01200000E1A6E60AEEB
:101A000004EF0DF006EF0DF092EF0DF062A60BEF74
:101A10000DF00DEF0DF02CEF0DF018C0D9FF19C02F
:101A2000DAFF020EDF6E64CF05F061CF06F062CF01
:101A300007F06350FEEC10F020EE01F01850D926AC
:101A40001950DA2205C0DEFF06C0DEFF07C0DEFF48
:101A500008C0DEFF45EF0DF018C0D9FF19C0DAFF4E
:101A6000010EDF6E62CF05F0615090EC12F020EEB7
:101A700001F01850D9261950DA2205C0DEFF06C041
:101A8000DEFF07C0DEFF08C0DEFF20EE05F01850C5
:101A9000D9261950DA2265CFDFFF20EE06F0185064
:101AA000D9261950DA2266CFDFFF20EE07F0185052
:101AB000D9261950DA2267CFDFFF20EE08F0185040
:101AC000D9261950DA2268CFDFFF20EE09F018502E
:101AD000D9261950DA2269CFDFFF20EE0AF018501C
:101AE000D9261950DA226ACFDFFF20EE0BF018500A
:101AF000D9261950DA226BCFDFFF20EE0CF01850F8
:101B0000D9261950DA226CCFDFFF20EE0DF01850E5
:101B1000D9261950DA226DCFDFFF609E010E1A6EB2
:101B200025EF0EF00F0130AF98EF0DF09AEF0DF0AA
:101B300025EF0EF032A79FEF0DF0A1EF0DF0C0EFF3
:101B40000DF018C0D9FF19C0DAFF020EDF6E34CFD6
:101B500005F031CF06F032CF07F03351FEEC10F034
:101B600020EE01F01850D9261950DA2205C0DEFF08
:101B700006C0DEFF07C0DEFF08C0DEFFD9EF0DF0B4
:101B800018C0D9FF19C0DAFF010EDF6E32CF05F0A1
:101B9000315190EC12F020EE01F01850D926195076
:101BA000DA2205C0DEFF06C0DEFF07C0DEFF08C088
:101BB000DEFF20EE05F01850D9261950DA2235CF75
:101BC000DFFF20EE06F01850D9261950DA2236CF62
:101BD000DFFF20EE07F01850D9261950DA2237CF50
:101BE000DFFF20EE08F01850D9261950DA2238CF3E
:101BF000DFFF20EE09F01850D9261950DA2239CF2C
:101C0000DFFF20EE0AF01850D9261950DA223ACF19
:101C1000DFFF20EE0BF01850D9261950DA223BCF07
:101C2000DFFF20EE0CF01850D9261950DA223CCFF5
:101C3000DFFF20EE0DF01850D9261950DA223DCFE3
:101C4000DFFF0F01309F8EEF0DF01A501200000ED3
:101C5000166E14BE30EF0EF02EEF0EF042EF0EF0C7
:101C6000141E131E121E111E101E0F1E0E1E0D6CB2
:101C7000000E0E220F2210221122122213221422F1
:101C8000010E166E0CBE49EF0EF047EF0EF05BEF43
:101C90000EF00C1E0B1E0A1E091E081E071E061E35
:101CA000056C000E06220722082209220A220B22B6
:101CB0000C22010E161A20EE17F0070EDE6AE80657
:101CC000FDE20D500E100F10101011101210131015
:101CD0001410D8B46EEF0EF070EF0EF0C2EF0EF0ED
:101CE000010E156E7EEF0EF0D8900D360E360F36C3
:101CF00010361136123613361436152A14AE83EF09
:101D00000EF085EF0EF074EF0EF0D89017361836FF
:101D100019361A361B361C361D361E360D50055C1C
:101D20000E5006580F5007581050085811500958B7
:101D300012500A5813500B5814500C58D8A0A3EF47
:101D40000EF0A5EF0EF0B6EF0EF00D50055E0E5042
:101D5000065A0F50075A1050085A1150095A12507B
:101D60000A5A13500B5A14500C5A1780D890143238
:101D700013321232113210320F320E320D32152E52
:101D800085EF0EF01650D8B4C8EF0EF0CAEF0EF083
:101D9000DAEF0EF01E1E1D1E1C1E1B1E1A1E191E23
:101DA000181E176C000E182219221A221B221C2240
:101DB0001D221E2217C005F018C006F019C007F03A
:101DC0001AC008F01BC009F01CC00AF01DC00BF0BF
:101DD0001EC00CF01200020E0918D8A4F2EF0EF08B
:101DE000F4EF0EF077EF0FF00CC0D9FF0DC0DAFF63
:101DF00005C0DFFF05C012F006C013F007C014F0E5
:101E000008C015F013C012F014C013F015C014F080
:101E1000156A12C005F013C006F014C007F015C013
:101E200008F00AC0D9FF0BC0DAFF05C0DFFF05C00C
:101E300012F006C013F007C014F008C015F013C06C
:101E400012F014C013F015C014F0156A12C005F09A
:101E500013C006F014C007F015C008F00550030BBE
:101E6000166E05C012F006C013F007C014F008C0CB
:101E700015F0030ED8901236133614361536E82EA8
:101E80003AEF0FF012C005F013C006F014C007F0CF
:101E900015C008F00550E00B1624166E1650080FFA
:101EA000166E1650EB0B10C0D9FF11C0DAFFDF6EB3
:101EB00005C012F006C013F007C014F008C015F0FA
:101EC00013C012F014C013F015C014F0156A12C03C
:101ED00005F013C006F014C007F015C008F00EC0DE
:101EE000D9FF0FC0DAFF05C0DFFFA4EF0FF00AC073
:101EF000D9FF0BC0DAFF000EDF6E0CC0D9FF0DC09A
:101F0000DAFF000EDF6E05C012F006C013F007C046
:101F100014F008C015F0050ED8901236133614369A
:101F20001536E82E8CEF0FF012C005F013C006F046
:101F300014C007F015C008F010C0D9FF11C0DAFFB7
:101F400005C0DFFF58EF0FF01200000E166E0CBE3A
:101F5000AEEF0FF0ACEF0FF0C0EF0FF00C1E0B1E4A
:101F60000A1E091E081E071E061E056C000E06220C
:101F70000722082209220A220B220C22010E166EC9
:101F800014BEC7EF0FF0C5EF0FF0D7EF0FF0141E20
:101F9000131E121E111E101E0F1E0E1E0D6C000EA3
:101FA0000E220F22102211221222132214220D506F
:101FB0000E100F1010101110121013101410D8B4AE
:101FC000E4EF0FF0E6EF0FF02EEF10F0010E156EBC
:101FD000F4EF0FF0D8900D360E360F36103611365E
:101FE000123613361436152A14AEF9EF0FF0FBEF44
:101FF0000FF0EAEF0FF00D50055C0E5006580F5031
:102000000758105008581150095812500A581350C8
:102010000B5814500C58D8A010EF10F012EF10F01D
:1020200022EF10F00D50055E0E50065A0F50075A61
:102030001050085A1150095A12500A5A13500B5A8C
:1020400014500C5AD890143213321232113210320A
:102050000F320E320D32152EFBEF0FF01650D8B4A2
:1020600034EF10F036EF10F046EF10F00C1E0B1EA0
:102070000A1E091E081E071E061E056C000E0622FB
:102080000722082209220A220B220C2205C005F091
:1020900006C006F007C007F008C008F009C009F044
:1020A0000AC00AF00BC00BF00CC00CF0120047C0C5
:1020B000D9FF48C0DAFFDECFF6FFDDCFF7FF08001B
:1020C000F550250AD8A467EF10F069EF10F0E9EF9A
:1020D00010F047C0D9FF48C0DAFFDE2A000EDD222B
:1020E000000E0001616F000E606F60C059F0626900
:1020F000636947C0D9FF48C0DAFFDECF55F0DDCFB6
:1021000056F055C0F6FF56C0F7FF0800F550640AB8
:10211000D8B48DEF10F08FEF10F09DEF10F055C098
:10212000F6FF56C0F7FF0800F550690AD8A49BEFE8
:1021300010F09DEF10F0E0EF10F049C0D9FF4AC059
:10214000DAFFDFCF4BF0020EDE26DFCF4CF0000EC1
:10215000DD224BC0D9FF4CC0DAFFDECF4DF0DDCF22
:102160004EF0000E4EBEFF0E4F6E506E516E526E10
:10217000536E546E010E55244B6E000E56204C6E5D
:1021800047C0D9FF48C0DAFF4BC0DEFF4CC0DDFFBF
:1021900045C022F046C023F04DC024F04EC025F0CB
:1021A0004FC026F050C027F051C028F052C029F08F
:1021B00053C02AF054C02BF0BFEC0BF0FDEF10F031
:1021C00047C0D9FF48C0DAFFDE2A000EDD22FDEF4E
:1021D00010F047C0D9FF48C0DAFFDECFF6FFDDCFF1
:1021E000F7FF0800F550076E086A45C009F046C0C1
:1021F0000AF008EC12F0E0EF10F012000D6E000E85
:10220000146E000E156E000E166E000E176E07503F
:10221000030B126E0738E842070B136E0650096E67
:102220000A6AD89009360A36D89009360A36D89004
:1022300009360A3609C014F00AC015F0000E15BEA2
:10224000FF0E166E176E13501424146E000E152018
:10225000156E000E1620166E000E1720176E14C095
:1022600009F015C00AF016C00BF017C00CF0020EF2
:10227000D89009360A360B360C36E82E38EF11F0B6
:1022800009C014F00AC015F00BC016F00CC017F00E
:1022900012501424146E000E1520156E000E162018
:1022A000166E000E1720176E14C00AF015C00BF042
:1022B00016C00CF0096A09C014F00AC015F00BC072
:1022C00016F00CC017F00D501424146E000E1520DB
:1022D000156E000E1620166E000E1720176E14C015
:1022E0000AF015C00BF016C00CF0096A09C014F012
:1022F0000AC015F00BC016F00CC017F005501424DE
:10230000146E000E1520156E000E1620166E000EAF
:102310001720176E14C00EF015C00FF016C010F085
:1023200017C011F00EC005F00FC006F010C007F086
:1023300011C008F01200800E6F6E6E50E00B800A24
:10234000D8A4A5EF11F0A7EF11F09DEF11F0000E4A
:10235000726E200E706E000E0E01FA6F000EFB6F93
:10236000000EF86F000EF96F000EFE6F000EFF6F8B
:10237000000EFC6F000EFD6F000EE26F000EE36FAB
:10238000000EE06F000EE16F000EE66F000EE76FCB
:10239000000EE46F000EE56F000EEA6F000EEB6FAB
:1023A000000EE86F000EE96F000EEE6F000EEF6F8B
:1023B000000EEC6F000EED6F000EF26F000EF36F6B
:1023C000000EF06F000EF16F000EF66F000EF76F4B
:1023D000000EF46F000EF56F070E436FA80E446FEA
:1023E000010E456F920E056E280E066E3DEC14F040
:1023F000779C768C000E6F6E6ECF07F0E00E07169E
:10240000D8A405EF12F007EF12F0FCEF11F0120064
:1024100009500A10D8B40FEF12F011EF12F01AEFB2
:1024200012F009500A10D8A418EF12F01AEF12F0A7
:102430001FEF12F0075024EC14F052EF12F020EED0
:1024400009F00950D9260A50DA22DE50DE10D8B43D
:102450002CEF12F02EEF12F049EF12F020EE09F0FF
:102460000950D9260A50DA2210EE03F00950E1266D
:102470000A50E222DE50E65CE650800A0F6EDE5023
:10248000800A0F58D8B047EF12F049EF12F052EF20
:1024900012F020EE03F00950D9260A50DA22DE2A83
:1024A000000EDD2212001CBE58EF12F05AEF12F09F
:1024B00060EF12F01BC020F01CC021F064EF12F09E
:1024C000000E216E000E206E000E1F6E000E1E6E9E
:1024D00076EF12F0000E086E200E076E17C009F09E
:1024E00018C00AF008EC12F01E4A1F2A20501E5C89
:1024F0001F50800A1D6E2150800A1D58D8A083EFFE
:1025000012F085EF12F06AEF12F019C010F01AC045
:1025100011F017C012F018C013F0F4EC12F0120012
:102520000B6E0B50096E0A6AD89009360A36D8909D
:1025300009360A36D89009360A3609C010F00AC0A2
:1025400011F0000E11BEFF0E126E136E05C009F0E1
:10255000050E0A6ED89009320A2EAAEF12F0095021
:102560001024106E000E1120116E000E1220126E3B
:10257000000E1320136E10C00CF011C00DF012C02D
:102580000EF013C00FF00CC005F00DC006F00EC029
:1025900007F00FC008F0120091C095F092C096F0BD
:1025A000E0EF12F08FC045F090C046F0950E476EF8
:1025B000000E486E93C049F094C04AF057EC10F0FA
:1025C00095C0F6FF96C0F7FF0800F5500009D8A4A3
:1025D000ECEF12F0EEEF12F0D2EF12F0000E00016D
:1025E000906F000E8F6F1200000E166E000E156EAB
:1025F00005EF13F014C007F0086A12C009F013C009
:102600000AF008EC12F0154A162A15501024D96E5B
:1026100016501120DA6EDF50146E1450D8A413EF48
:1026200013F015EF13F0FAEF12F0120018BE23EFBB
:1026300013F0185006E11704D8B021EF13F023EF80
:1026400013F031EF13F017C019F018C01AF0191E6B
:102650001A1E194A1A2A19C017F01AC018F035EFB5
:1026600013F017C017F018C018F01200080EA76E6C
:10267000900EAB6E240EAC6E080EAF6E020E7D6E29
:10268000000E056E000E066E33EC14F0000E056EA3
:10269000000E066E2EEC14F0000E056E000E066E97
:1026A00038EC14F0000E5A6E1200000EAA6E0B0EDB
:1026B000CF6EDC0ECE6E9E90CE50CFCF07F0086A64
:1026C00007C008F0076A07100001C46F0850C56F03
:1026D0009D80900E056E280E066E29EC14F0310ECA
:1026E000CD6E12009E90C4C001F0C5C002F0CEECC9
:1026F00013F0574A582A585009E10A0E575CD8A0DF
:1027000084EF13F086EF13F08CEF13F08DEC13F0E1
:10271000000E586E000E576E12000001C251C31118
:10272000D8B495EF13F097EF13F0A4EF13F002D89D
:10273000A4EF13F00500FA6EC251FD6EC351FE6E98
:10274000F850FF6EFA5012001200000E896E000E53
:102750008A6E000E8B6ECF0E926EFB0E936EB30ED2
:10276000946E1E0E0F015D6F030E5C6F000E5B6FAB
:10277000F18E1200990E00019B6F000E9C6F000EEF
:102780008F6F000E906F97C091F098C092F09B0EE3
:10279000936F000E946FCCEC12F01200CDA4D3EF27
:1027A00013F0D5EF13F0DDEF13F0CD900250CF6EA4
:1027B00001C0CEFFCD80E1EF13F00250CF6E01C01B
:1027C000CEFF120000EE60F02F0EEE6AE806FDE18B
:1027D0005A6A596A586A576A5B905B92000EF86EA3
:1027E000000147EF08F002D801EF14F005000001E6
:1027F000FA6E6C51FD6E6D51FE6EF850FF6EFA5020
:102800001200779C120046EC14F0A5EC13F01BECC0
:1028100014F055EC13F036EC13F09BEC11F01200B1
:10282000056E9EA816EF14F018EF14F011EF14F0D7
:1028300005C0ADFF1200600ED36E000ED26E000E0A
:102840009B6E000E9A6E1200066E065010EC14F08D
:10285000120005C0C2F006C0C3F0120005C0BEF0F1
:1028600006C0BFF0120005C0C0F006C0C1F01200E3
:1028700005C0BCF006C0BDF0120005C06CF006C07B
:102880006DF01200010E00016E6F1200D09E12005A
:042890001200120020
:020000040020DA
:08000000FFFFFFFFFFFFFFFF00
:020000040030CA
:0E00000015027F7CFF8991FF0FC00FE00F40BB
:00000001FF
