:040000003AEF00F0E3
:100008005B82FACF03F0FBCF04F0F2AC0EEF00F006
:1000180010EF00F034EF00F076AC15EF00F017EFBA
:1000280000F022EF00F077AC1CEF00F01EEF00F0BC
:1000380022EF00F086EC13F034EF00F09DA027EFDC
:1000480000F029EF00F034EF00F09EA02EEF00F052
:1000580030EF00F034EF00F005EC13F034EF00F06F
:1000680004C0FBFF03C0FAFF5B92110075EF13F0A9
:101000000050726F74656374696F6E3A204F4E20A2
:101010000050726F74656374696F6E3A204F464674
:101020000042617474657269653A2025642000533A
:10103000797374656D653A204F4E2000537973744F
:10104000656D653A204F464600457461743A204FFD
:101050004E2000457461743A204F4646000096ECDD
:1010600013F0AA0E056E270E066EBCEC13F0F28E7E
:10107000F28C600E606EA00E0001A16F010EA26FD7
:10108000000EA36F000EA46F010EA56F000EA66FD9
:10109000000EAF6F000EB06F000EB16F000EB26F9A
:1010A000000EB36F000EB46FFE0EA3EC13F0410EF2
:1010B000A3EC13F0FE0EA3EC13F0510EA3EC13F00F
:1010C000FE0EA3EC13F0460EA3EC13F01A0E000173
:1010D0009E6F5E0E9D6F6E0EE82EFED79D2FFCD785
:1010E0009E2FFAD700F0030E000168196911D8A4E9
:1010F0007CEF08F07EEF08F0B8EF08F080A083EFF7
:1011000008F085EF08F0A0EF08F0FE0EA3EC13F056
:10111000450EA3EC13F0000EA3EC13F0530E0001E8
:10112000976F100E986F4DEC13F08B968B84000E1A
:1011300000016B6F000E6A6F000EA66FB8EF08F02B
:10114000FE0EA3EC13F0450EA3EC13F0000EA3EC7F
:1011500013F0490E0001976F100E986F4DEC13F0CD
:101160008B948B860001A669000E6B6F010E6A6F6F
:101170006E05D8A4BEEF08F0C0EF08F0C9EF08F084
:10118000A00E176E000E186EC5EC09F0000E0001DF
:101190006E6FAE0E186E000E196E90EC0CF000091A
:1011A000D8B4D5EF08F0D7EF08F073EF08F00001DE
:1011B000B005AF11B111B211D8A4E1EF08F0E3EF1F
:1011C00008F016EF09F0B451D8B4E9EF08F0EBEFEE
:1011D00008F0FDEF08F0FE0EA3EC13F0450EA3ECB3
:1011E00013F0400EA3EC13F0010E0001976F100EE8
:1011F000986F4DEC13F073EF08F0FE0EA3EC13F0B4
:10120000450EA3EC13F0400EA3EC13F0110E0001F9
:10121000976F100E986F4DEC13F0000E0001696F80
:10122000010E686F73EF08F073EF08F0200EAF192E
:1012300008E1B005B111B211D8A421EF09F023EFF4
:1012400009F066EF09F0020E68196911D8A42BEFB6
:1012500009F02DEF09F073EF08F0B429D8A433EFAB
:1012600009F035EF09F047EF09F0FE0EA3EC13F09B
:10127000450EA3EC13F0540EA3EC13F03C0E00014A
:10128000976F100E986F4DEC13F073EF08F0B45198
:10129000D8A44DEF09F04FEF09F014EF09F0FE0E5E
:1012A000A3EC13F0450EA3EC13F0540EA3EC13F0D3
:1012B0002F0E0001976F100E986F4DEC13F0000E7B
:1012C0000001696F030E686F73EF08F0800EAF19AD
:1012D00008E1B005B111B211D8A471EF09F073EFB4
:1012E00009F014EF09F0B4C09FF0FE0EA3EC13F068
:1012F000450EA3EC13F0140EA3EC13F0210E000125
:10130000976F100E986F9FC099F09A6B4DEC13F089
:10131000000168056911D8A490EF09F092EF09F077
:1013200073EF08F0030E9F6198EF09F09AEF09F050
:10133000ACEF09F0FE0EA3EC13F0450EA3EC13F096
:10134000000EA3EC13F0530E0001976F100E986F70
:101350004DEC13F073EF08F0FE0EA3EC13F0450E06
:10136000A3EC13F0000EA3EC13F0490E0001976FED
:10137000100E986F4DEC13F0000E0001696F020E15
:10138000686F73EF08F03AEF00F0000E196E000E70
:101390001A6E000E1B6E000E1C6E0F0120B7D3EFED
:1013A00009F0D5EF09F04FEF0AF020EE01F01750E9
:1013B000D9261850DA22DECF05F0DECF06F0DECFD8
:1013C00007F0DECF08F017C0D9FF18C0DAFFDF50F2
:1013D000096E190E0A6E000E0B6E1A0E0C6E000EC0
:1013E0000D6E1B0E0E6E000E0F6E1C0E106E000E9C
:1013F000116E7EEC0EF019C023FF1AC024FF1BC033
:1014000021FF1CC022FF20EE05F01750D9261850EE
:10141000DA22DF500F01256F20EE06F01750D92693
:101420001850DA22DF50266F20EE07F01750D92629
:101430001850DA22DF50276F20EE08F01750D92617
:101440001850DA22DF50286F20EE09F01750D92605
:101450001850DA22DF50296F20EE0AF01750D926F3
:101460001850DA22DF502A6F20EE0BF01750D926E1
:101470001850DA22DF502B6F20EE0CF01750D926CF
:101480001850DA22DF502C6F20EE0DF01750D926BD
:101490001850DA22DF502D6F208751EF0BF010B774
:1014A00054EF0AF056EF0AF0D0EF0AF020EE01F008
:1014B0001750D9261850DA22DECF05F0DECF06F01D
:1014C000DECF07F0DECF08F017C0D9FF18C0DAFF73
:1014D000DF50096E190E0A6E000E0B6E1A0E0C6E9E
:1014E000000E0D6E1B0E0E6E000E0F6E1C0E106E9B
:1014F000000E116E7EEC0EF019C013FF1AC014FF1F
:101500001BC011FF1CC012FF20EE05F01750D9269A
:101510001850DA22DF500F01156F20EE06F0175039
:10152000D9261850DA22DF50166F20EE07F0175038
:10153000D9261850DA22DF50176F20EE08F0175026
:10154000D9261850DA22DF50186F20EE09F0175014
:10155000D9261850DA22DF50196F20EE0AF0175002
:10156000D9261850DA22DF501A6F20EE0BF01750F0
:10157000D9261850DA22DF501B6F20EE0CF01750DE
:10158000D9261850DA22DF501C6F20EE0DF01750CC
:10159000D9261850DA22DF501D6F10874DEF0AF060
:1015A00000B7D5EF0AF0D7EF0AF051EF0BF020EEBD
:1015B00001F01750D9261850DA22DECF05F0DECF21
:1015C00006F0DECF07F0DECF08F017C0D9FF18C055
:1015D000DAFFDF50096E190E0A6E000E0B6E1A0E3E
:1015E0000C6E000E0D6E1B0E0E6E000E0F6E1C0E9E
:1015F000106E000E116E7EEC0EF019C003FF1AC0C3
:1016000004FF1BC001FF1CC002FF20EE05F01750B5
:10161000D9261850DA22DF500F01056F20EE06F0B0
:101620001750D9261850DA22DF50066F20EE07F047
:101630001750D9261850DA22DF50076F20EE08F035
:101640001750D9261850DA22DF50086F20EE09F023
:101650001750D9261850DA22DF50096F20EE0AF011
:101660001750D9261850DA22DF500A6F20EE0BF0FF
:101670001750D9261850DA22DF500B6F20EE0CF0ED
:101680001750D9261850DA22DF500C6F20EE0DF0DB
:101690001750D9261850DA22DF500D6F00874DEF12
:1016A0000AF0120024C03AF025C03BF026C03CF0FE
:1016B00027C03DF028C03EF029C03FF02AC040F0CE
:1016C0002BC041F041BE67EF0BF06AEF0BF0010E4B
:1016D0006BEF0BF0000E426E4250D8B472EF0BF07D
:1016E00074EF0BF084EF0BF0411E401E3F1E3E1EB8
:1016F0003D1E3C1E3B1E3A6C000E3B223C223D220E
:101700003E223F2240224122000163BF92EF0BF0B4
:10171000635106E16205D8B090EF0BF092EF0BF049
:1017200098EF0BF0000E376E010E366E9CEF0BF04B
:1017300062C036F063C037F060C038F061C039F085
:101740004250D8B4A6EF0BF0A8EF0BF0BFEF0BF0B0
:101750003806D8A039064250D8A4B1EF0BF0B3EF49
:101760000BF0B9EF0BF0000E356E2B0E346EBDEFA3
:101770000BF0000E356E2D0E346E34C042F0000EAC
:10178000446E1F0E436E000E8E6F43EF0CF0430647
:10179000D8A044066F0E4324D96E000E4420DA6EA2
:1017A0003AC005F03BC006F03CC007F03DC008F071
:1017B0003EC009F03FC00AF040C00BF041C00CF041
:1017C0000A0E0D6E000E0E6E000E0F6E000E106EE5
:1017D000000E116E000E126E000E136E000E146ECF
:1017E00038EC0FF005C02CF006C02DF007C02EF02D
:1017F00008C02FF009C030F00AC031F00BC032F041
:101800000CC033F02CC017F02DC018F0A9EC12F06A
:101810001750300FDF6E3606D8A037063806D8A02E
:1018200039063AC005F03BC006F03CC007F03DC0A9
:1018300008F03EC009F03FC00AF040C00BF041C0C4
:101840000CF00A0E0D6E000E0E6E000E0F6E000EE6
:10185000106E000E116E000E126E000E136E000E52
:10186000146EBAEC0DF005C03AF006C03BF007C0AC
:101870003CF008C03DF009C03EF00AC03FF00BC08C
:1018800040F00CC041F044BE4EEF0CF0445008E173
:101890004304D8A04EEF0CF050EF0CF06CEF0CF0BE
:1018A0003A503B103C103D103E103F10401041108C
:1018B000D8A45DEF0CF05FEF0CF0C7EF0BF037BE74
:1018C0006CEF0CF0375006E13604D8B06AEF0CF03C
:1018D0006CEF0CF0C7EF0BF04250D8B472EF0CF085
:1018E00074EF0CF07FEF0CF04306D8A044066F0EA7
:1018F0004324D96E000E4420DA6E42C0DFFF22C0BE
:1019000017F023C018F06F0E4324196E000E442008
:101910001A6E38C01BF039C01CF0E6EC11F0120052
:10192000000E1A6E60AE97EF0CF099EF0CF025EFF9
:101930000DF062A69EEF0CF0A0EF0CF0BFEF0CF0E4
:1019400018C0D9FF19C0DAFF020EDF6E64CF05F0B0
:1019500061CF06F062CF07F0635091EC10F020EEFB
:1019600001F01850D9261950DA2205C0DEFF06C052
:10197000DEFF07C0DEFF08C0DEFFD8EF0CF018C0A6
:10198000D9FF19C0DAFF010EDF6E62CF05F061509A
:1019900023EC12F020EE01F01850D9261950DA226B
:1019A00005C0DEFF06C0DEFF07C0DEFF08C0DEFFA9
:1019B00020EE05F01850D9261950DA2265CFDFFF46
:1019C00020EE06F01850D9261950DA2266CFDFFF34
:1019D00020EE07F01850D9261950DA2267CFDFFF22
:1019E00020EE08F01850D9261950DA2268CFDFFF10
:1019F00020EE09F01850D9261950DA2269CFDFFFFE
:101A000020EE0AF01850D9261950DA226ACFDFFFEB
:101A100020EE0BF01850D9261950DA226BCFDFFFD9
:101A200020EE0CF01850D9261950DA226CCFDFFFC7
:101A300020EE0DF01850D9261950DA226DCFDFFFB5
:101A4000609E010E1A6EB8EF0DF00F0130AF2BEF54
:101A50000DF02DEF0DF0B8EF0DF032A732EF0DF0D5
:101A600034EF0DF053EF0DF018C0D9FF19C0DAFFB5
:101A7000020EDF6E34CF05F031CF06F032CF07F023
:101A8000335191EC10F020EE01F01850D926195086
:101A9000DA2205C0DEFF06C0DEFF07C0DEFF08C099
:101AA000DEFF6CEF0DF018C0D9FF19C0DAFF010E90
:101AB000DF6E32CF05F0315123EC12F020EE01F051
:101AC0001850D9261950DA2205C0DEFF06C0DEFF05
:101AD00007C0DEFF08C0DEFF20EE05F01850D92653
:101AE0001950DA2235CFDFFF20EE06F01850D92644
:101AF0001950DA2236CFDFFF20EE07F01850D92632
:101B00001950DA2237CFDFFF20EE08F01850D9261F
:101B10001950DA2238CFDFFF20EE09F01850D9260D
:101B20001950DA2239CFDFFF20EE0AF01850D926FB
:101B30001950DA223ACFDFFF20EE0BF01850D926E9
:101B40001950DA223BCFDFFF20EE0CF01850D926D7
:101B50001950DA223CCFDFFF20EE0DF01850D926C5
:101B60001950DA223DCFDFFF0F01309F21EF0DF03A
:101B70001A501200000E166E14BEC3EF0DF0C1EF26
:101B80000DF0D5EF0DF0141E131E121E111E101EA7
:101B90000F1E0E1E0D6C000E0E220F22102211229F
:101BA000122213221422010E166E0CBEDCEF0DF071
:101BB000DAEF0DF0EEEF0DF00C1E0B1E0A1E091EE3
:101BC000081E071E061E056C000E062207220822AC
:101BD00009220A220B220C22010E161A20EE17F0FF
:101BE000070EDE6AE806FDE20D500E100F10101011
:101BF0001110121013101410D8B401EF0EF003EFEF
:101C00000EF055EF0EF0010E156E11EF0EF0D8909C
:101C10000D360E360F361036113612361336143690
:101C2000152A14AE16EF0EF018EF0EF007EF0EF0B7
:101C3000D8901736183619361A361B361C361D360C
:101C40001E360D50055C0E5006580F5007581050A8
:101C500008581150095812500A5813500B58145074
:101C60000C58D8A036EF0EF038EF0EF049EF0EF01A
:101C70000D50055E0E50065A0F50075A1050085A64
:101C80001150095A12500A5A13500B5A14500C5A38
:101C90001780D890143213321232113210320F32B0
:101CA0000E320D32152E18EF0EF01650D8B45BEF31
:101CB0000EF05DEF0EF06DEF0EF01E1E1D1E1C1ED1
:101CC0001B1E1A1E191E181E176C000E1822192230
:101CD0001A221B221C221D221E2217C005F018C02A
:101CE00006F019C007F01AC008F01BC009F01CC0AC
:101CF0000AF01DC00BF01EC00CF01200020E0918F5
:101D0000D8A485EF0EF087EF0EF00AEF0FF00CC0AD
:101D1000D9FF0DC0DAFF05C0DFFF05C012F006C015
:101D200013F007C014F008C015F013C012F014C06F
:101D300013F015C014F0156A12C005F013C006F0B8
:101D400014C007F015C008F00AC0D9FF0BC0DAFFB5
:101D500005C0DFFF05C012F006C013F007C014F085
:101D600008C015F013C012F014C013F015C014F021
:101D7000156A12C005F013C006F014C007F015C0B4
:101D800008F00550030B166E05C012F006C013F0E4
:101D900007C014F008C015F0030ED89012361336A1
:101DA00014361536E82ECDEF0EF012C005F013C034
:101DB00006F014C007F015C008F00550E00B16241B
:101DC000166E1650080F166E1650EB0B10C0D9FF8A
:101DD00011C0DAFFDF6E05C012F006C013F007C0B5
:101DE00014F008C015F013C012F014C013F015C0A1
:101DF00014F0156A12C005F013C006F014C007F005
:101E000015C008F00EC0D9FF0FC0DAFF05C0DFFF14
:101E100037EF0FF00AC0D9FF0BC0DAFF000EDF6EFC
:101E20000CC0D9FF0DC0DAFF000EDF6E05C012F046
:101E300006C013F007C014F008C015F0050ED890C6
:101E40001236133614361536E82E1FEF0FF012C077
:101E500005F013C006F014C007F015C008F010C05C
:101E6000D9FF11C0DAFF05C0DFFFEBEF0EF0120063
:101E7000000E166E0CBE41EF0FF03FEF0FF053EF68
:101E80000FF00C1E0B1E0A1E091E081E071E061E42
:101E9000056C000E06220722082209220A220B22C4
:101EA0000C22010E166E14BE5AEF0FF058EF0FF011
:101EB0006AEF0FF0141E131E121E111E101E0F1EAD
:101EC0000E1E0D6C000E0E220F2210221122122265
:101ED000132214220D500E100F101010111012109A
:101EE00013101410D8B477EF0FF079EF0FF0C1EFA3
:101EF0000FF0010E156E87EF0FF0D8900D360E36ED
:101F00000F3610361136123613361436152A14AE23
:101F10008CEF0FF08EEF0FF07DEF0FF00D50055CA2
:101F20000E5006580F5007581050085811500958B5
:101F300012500A5813500B5814500C58D8A0A3EF45
:101F40000FF0A5EF0FF0B5EF0FF00D50055E0E503E
:101F5000065A0F50075A1050085A1150095A125079
:101F60000A5A13500B5A14500C5AD8901432133288
:101F70001232113210320F320E320D32152E8EEF18
:101F80000FF01650D8B4C7EF0FF0C9EF0FF0D9EF2C
:101F90000FF00C1E0B1E0A1E091E081E071E061E31
:101FA000056C000E06220722082209220A220B22B3
:101FB0000C2205C005F006C006F007C007F008C0F7
:101FC00008F009C009F00AC00AF00BC00BF00CC001
:101FD0000CF0120047C0D9FF48C0DAFFDECFF6FF91
:101FE000DDCFF7FF0800F550250AD8A4FAEF0FF06F
:101FF000FCEF0FF07CEF10F047C0D9FF48C0DAFFCC
:10200000DE2A000EDD22000E0001616F000E606FFF
:1020100060C059F06269636947C0D9FF48C0DAFF00
:10202000DECF55F0DDCF56F055C0F6FF56C0F7FFB6
:102030000800F550640AD8B420EF10F022EF10F039
:1020400030EF10F055C0F6FF56C0F7FF0800F5500E
:10205000690AD8A42EEF10F030EF10F073EF10F0F3
:1020600049C0D9FF4AC0DAFFDFCF4BF0020EDE26AF
:10207000DFCF4CF0000EDD224BC0D9FF4CC0DAFFA1
:10208000DECF4DF0DDCF4EF0000E4EBEFF0E4F6E98
:10209000506E516E526E536E546E010E55244B6E3F
:1020A000000E56204C6E47C0D9FF48C0DAFF4BC027
:1020B000DEFF4CC0DDFF45C022F046C023F04DC01E
:1020C00024F04EC025F04FC026F050C027F051C07C
:1020D00028F052C029F053C02AF054C02BF052EC23
:1020E0000BF090EF10F047C0D9FF48C0DAFFDE2AAE
:1020F000000EDD2290EF10F047C0D9FF48C0DAFF94
:10210000DECFF6FFDDCFF7FF0800F550076E086A57
:1021100045C009F046C00AF09BEC11F073EF10F0D7
:1021200012000D6E000E146E000E156E000E166E6F
:10213000000E176E0750030B126E0738E842070BAC
:10214000136E0650096E0A6AD89009360A36D8907E
:1021500009360A36D89009360A3609C014F00AC082
:1021600015F0000E15BEFF0E166E176E13501424D8
:10217000146E000E1520156E000E1620166E000E41
:102180001720176E14C009F015C00AF016C00BF026
:1021900017C00CF0020ED89009360A360B360C36F2
:1021A000E82ECBEF10F009C014F00AC015F00BC0F8
:1021B00016F00CC017F012501424146E000E1520E7
:1021C000156E000E1620166E000E1720176E14C026
:1021D0000AF015C00BF016C00CF0096A09C014F023
:1021E0000AC015F00BC016F00CC017F00D501424E7
:1021F000146E000E1520156E000E1620166E000EC1
:102200001720176E14C00AF015C00BF016C00CF0A2
:10221000096A09C014F00AC015F00BC016F00CC012
:1022200017F005501424146E000E1520156E000EC4
:102230001620166E000E1720176E14C00EF015C073
:102240000FF016C010F017C011F00EC005F00FC04F
:1022500006F010C007F011C008F01200800E6F6E7B
:102260006E50E00B800AD8A438EF11F03AEF11F06D
:1022700030EF11F0000E726E200E706E000E0E0127
:10228000FA6F000EFB6F000EF86F000EF96F000E74
:10229000FE6F000EFF6F000EFC6F000EFD6F000E54
:1022A000E26F000EE36F000EE06F000EE16F000EB4
:1022B000E66F000EE76F000EE46F000EE56F000E94
:1022C000EA6F000EEB6F000EE86F000EE96F000E74
:1022D000EE6F000EEF6F000EEC6F000EED6F000E54
:1022E000F26F000EF36F000EF06F000EF16F000E34
:1022F000F66F000EF76F000EF46F000EF56F070E0D
:10230000436FA80E446F010E456FB80E056E270E81
:10231000066ED0EC13F0779C768C000E6F6E6ECF4D
:1023200007F0E00E0716D8A498EF11F09AEF11F01D
:102330008FEF11F0120009500A10D8B4A2EF11F07B
:10234000A4EF11F0ADEF11F009500A10D8A4ABEFD3
:1023500011F0ADEF11F0B2EF11F00750B7EC13F040
:10236000E5EF11F020EE09F00950D9260A50DA22E3
:10237000DE50DE10D8B4BFEF11F0C1EF11F0DCEF8A
:1023800011F020EE09F00950D9260A50DA2210EE99
:1023900003F00950E1260A50E222DE50E65CE650E6
:1023A000800A0F6EDE50800A0F58D8B0DAEF11F0B5
:1023B000DCEF11F0E5EF11F020EE03F00950D92623
:1023C0000A50DA22DE2A000EDD2212001CBEEBEFDC
:1023D00011F0EDEF11F0F3EF11F01BC020F01CC075
:1023E00021F0F7EF11F0000E216E000E206E000EAE
:1023F0001F6E000E1E6E09EF12F0000E086E200E0A
:10240000076E17C009F018C00AF09BEC11F01E4AC5
:102410001F2A20501E5C1F50800A1D6E2150800A0A
:102420001D58D8A016EF12F018EF12F0FDEF11F0C2
:1024300019C010F01AC011F017C012F018C013F034
:1024400087EC12F012000B6E0B50096E0A6AD890DE
:1024500009360A36D89009360A36D89009360A362F
:1024600009C010F00AC011F0000E11BEFF0E126E6E
:10247000136E05C009F0050E0A6ED89009320A2EB7
:102480003DEF12F009501024106E000E1120116E55
:10249000000E1220126E000E1320136E10C00CF0EE
:1024A00011C00DF012C00EF013C00FF00CC005F0FB
:1024B0000DC006F00EC007F00FC008F0120091C06A
:1024C00095F092C096F073EF12F08FC045F090C077
:1024D00046F0950E476E000E486E93C049F094C0CA
:1024E0004AF0EAEC0FF095C0F6FF96C0F7FF08003F
:1024F000F5500009D8A47FEF12F081EF12F065EFDC
:1025000012F0000E0001906F000E8F6F1200000E8F
:10251000166E000E156E98EF12F014C007F0086AE0
:1025200012C009F013C00AF09BEC11F0154A162AEC
:1025300015501024D96E16501120DA6EDF50146E2B
:102540001450D8A4A6EF12F0A8EF12F08DEF12F0FD
:10255000120018BEB6EF12F0185006E11704D8B0FA
:10256000B4EF12F0B6EF12F0C4EF12F017C019F08A
:1025700018C01AF0191E1A1E194A1A2A19C017F083
:102580001AC018F0C8EF12F017C017F018C018F0F2
:102590001200080EA76E900EAB6E240EAC6E080EE5
:1025A000AF6E020E7D6E000E056E000E066EC6EC5E
:1025B00013F0000E056E000E066EC1EC13F0000E57
:1025C000056E000E066ECBEC13F0000E5A6E120074
:1025D000000EAA6E0B0ECF6EDC0ECE6E9E90CE500D
:1025E000CFCF07F0086A07C008F0076A071000019C
:1025F000C46F0850C56F9D80B60E056E270E066E1F
:10260000BCEC13F0310ECD6E12009E90C4C001F0F0
:10261000C5C002F061EC13F0574A582A585009E13E
:102620000A0E575CD8A017EF13F019EF13F01FEF45
:1026300013F020EC13F0000E586E000E576E1200CF
:102640000001C251C311D8B428EF13F02AEF13F0E0
:1026500037EF13F002D837EF13F00500FA6EC251CE
:10266000FD6EC351FE6EF850FF6EFA50120012005C
:10267000000E896E000E8A6E000E8B6ECF0E926E6B
:10268000FB0E936EB30E946E1E0E0F015D6F030E64
:102690005C6F000E5B6FF18E1200990E00019B6F54
:1026A000000E9C6F000E8F6F000E906F97C091F020
:1026B00098C092F09B0E936F000E946F5FEC12F037
:1026C0001200CDA466EF13F068EF13F070EF13F073
:1026D000CD900250CF6E01C0CEFFCD8074EF13F0CD
:1026E0000250CF6E01C0CEFF120000EE60F02F0E40
:1026F000EE6AE806FDE15A6A596A586A576A5B90C1
:102700005B92000EF86E00012FEF08F002D894EFF4
:1027100013F005000001FA6E6C51FD6E6D51FE6EF6
:10272000F850FF6EFA501200779C1200D9EC13F0AB
:1027300038EC13F0AEEC13F0E8EC12F0C9EC12F048
:102740002EEC11F01200056E9EA8A9EF13F0ABEF6E
:1027500013F0A4EF13F005C0ADFF1200600ED36EAE
:10276000000ED26E000E9B6E000E9A6E1200066E68
:102770000650A3EC13F0120005C0C2F006C0C3F06F
:10278000120005C0BEF006C0BFF0120005C0C0F0C8
:1027900006C0C1F0120005C0BCF006C0BDF01200BA
:1027A00005C06CF006C06DF01200010E00016E6FE6
:0A27B0001200D09E12001200120069
:020000040020DA
:08000000FFFFFFFFFFFFFFFF00
:020000040030CA
:0E00000015027F7CFF8991FF0FC00FE00F40BB
:00000001FF
