:040000003AEF00F0E3
:100008003D82FACF03F0FBCF04F0F2AC0EEF00F024
:1000180010EF00F034EF00F076AC15EF00F017EFBA
:1000280000F022EF00F077AC1CEF00F01EEF00F0BC
:1000380022EF00F0DBEC07F034EF00F09DA027EF93
:1000480000F029EF00F034EF00F09EA02EEF00F052
:1000580030EF00F034EF00F058EC07F034EF00F028
:1000680004C0FBFF03C0FAFF3D92110073EF07F0D5
:10007800CCEC07F02E0E056E100E066EFEEC07F0A7
:10008800F28EF28C600E606EA00E0001666F010E9B
:10009800676F000E686F000E696F030E6A6F000EBF
:1000A8006B6F000E746F000E756F000E766F000E8A
:1000B800776F000E786F000E796F730E186E000E52
:1000C800196EA1EC03F00009D8B46DEF00F06FEFE2
:1000D80000F0D9EF00F0000E226E000E216E000134
:1000E8007505741176117711D8A47DEF00F07FEFB4
:1000F80000F093EF00F07951D8B485EF00F087EF66
:1001080000F08DEF00F0000E286E010E276EF3EF61
:1001180000F0000E286E000E276EF3EF00F0200EA0
:10012800741908E1750576117711D8A49EEF00F0CF
:10013800A0EF00F0B4EF00F07951D8B4A6EF00F0CA
:10014800A8EF00F0AEEF00F0000E266E000E256E50
:10015800F3EF00F0000E266E010E256EF3EF00F0AF
:10016800800E741908E1750576117711D8A4BFEFD0
:1001780000F0C1EF00F0D7EF00F079C060F0030E97
:100188006061C9EF00F0CBEF00F0D1EF00F0000E96
:10019800246E000E236EF3EF00F0000E246E010EA5
:1001A800236EF3EF00F0F3EF00F03304D8A4DFEF91
:1001B80000F0E1EF00F0F3EF00F0214A222A050EEB
:1001C80021182210D8A4EBEF00F0EDEF00F0F1EFCA
:1001D80000F0000E3C6E020E3B6E000E336E80A0E7
:1001E800F8EF00F0FAEF00F000EF01F0000E2A6ED1
:1001F800000E296EF6EF01F0000E2A6E010E296E30
:10020800F6EF01F08B948B863304D8A40EEF01F03F
:1002180010EF01F05DEF01F000016B69080E1FECB3
:1002280007F005C061F006C062F00001636B646B03
:1002380061C005F062C006F063C007F064C008F052
:100248002C0E096E010E0A6E000E0B6E000E0C6E5F
:10025800CBEC06F005C061F006C062F007C063F0A1
:1002680008C064F061C01DF062C01EF063C01FF0DA
:1002780064C020F00D0E46EF01F0D89020321F32F6
:100288001E321D32E82E41EF01F01DC061F01EC084
:1002980062F01FC063F020C064F062C06CF061C0FF
:1002A8006DF0650E176E000E186E14EC02F0000E5D
:1002B800336E27042810D8B464EF01F066EF01F01C
:1002C8006FEF01F025502610D8A46DEF01F06FEF05
:1002D80001F075EF01F0000E3C6E020E3B6E61EF0F
:1002E80000F029502A10D8B47CEF01F07EEF01F01D
:1002F80087EF01F023502410D8A485EF01F087EF91
:1003080001F010EF02F0000E3C6E000E3B6E61EF44
:1003180000F08B848B9627502810D8A496EF01F014
:1003280098EF01F061EF00F025042610D8A49FEFA4
:1003380001F0A1EF01F061EF00F029042A10D8A420
:10034800A8EF01F0AAEF01F087EF01F023042410D1
:10035800D8A4B1EF01F0B3EF01F087EF01F0000E80
:100368003C6E010E3B6E61EF00F08B848B9633047C
:10037800D8A4C1EF01F0C3EF01F0CEEF01F0000EF9
:1003880000016B6F650E176E000E186E14EC02F00C
:10039800000E336E27042810D8B4D5EF01F0D7EF3C
:1003A80001F06FEF01F025502610D8A4DEEF01F020
:1003B800E0EF01F0E2EF01F06FEF01F029042A10FD
:1003C800D8A4E9EF01F0EBEF01F010EF02F02304FD
:1003D8002410D8A4F2EF01F0F4EF01F010EF02F0CE
:1003E800B3EF01F03BC01DF03CC01EF01E50000AE8
:1003F800D8B401EF02F061EF00F01D50000AD8B444
:10040800B9EF01F0010AD8B406EF01F0030AD8B435
:100418008DEF01F061EF00F061EF00F03AEF00F0CE
:10042800000E196E000E1A6E000E1B6E000E1C6E6A
:100438000F0120B722EF02F024EF02F09EEF02F046
:1004480020EE01F01750D9261850DA22DECF05F039
:10045800DECF06F0DECF07F0DECF08F017C0D9FFF9
:1004680018C0DAFFDF50096E190E0A6E000E0B6E07
:100478001A0E0C6E000E0D6E1B0E0E6E000E0F6E19
:100488001C0E106E000E116ECBEC04F019C023FF89
:100498001AC024FF1BC021FF1CC022FF20EE05F05C
:1004A8001750D9261850DA22DF500F01256F20EE99
:1004B80006F01750D9261850DA22DF50266F20EEA2
:1004C80007F01750D9261850DA22DF50276F20EE90
:1004D80008F01750D9261850DA22DF50286F20EE7E
:1004E80009F01750D9261850DA22DF50296F20EE6C
:1004F8000AF01750D9261850DA22DF502A6F20EE5A
:100508000BF01750D9261850DA22DF502B6F20EE47
:100518000CF01750D9261850DA22DF502C6F20EE35
:100528000DF01750D9261850DA22DF502D6F20878A
:10053800A0EF03F010B7A3EF02F0A5EF02F01FEF52
:1005480003F020EE01F01750D9261850DA22DECF3A
:1005580005F0DECF06F0DECF07F0DECF08F017C0DB
:10056800D9FF18C0DAFFDF50096E190E0A6E000EA7
:100578000B6E1A0E0C6E000E0D6E1B0E0E6E000E1C
:100588000F6E1C0E106E000E116ECBEC04F019C02D
:1005980013FF1AC014FF1BC011FF1CC012FF20EE6E
:1005A80005F01750D9261850DA22DF500F01156FC1
:1005B80020EE06F01750D9261850DA22DF50166FB1
:1005C80020EE07F01750D9261850DA22DF50176F9F
:1005D80020EE08F01750D9261850DA22DF50186F8D
:1005E80020EE09F01750D9261850DA22DF50196F7B
:1005F80020EE0AF01750D9261850DA22DF501A6F69
:1006080020EE0BF01750D9261850DA22DF501B6F56
:1006180020EE0CF01750D9261850DA22DF501C6F44
:1006280020EE0DF01750D9261850DA22DF501D6F32
:1006380010879CEF02F000B724EF03F026EF03F0D9
:10064800A0EF03F020EE01F01750D9261850DA2257
:10065800DECF05F0DECF06F0DECF07F0DECF08F004
:1006680017C0D9FF18C0DAFFDF50096E190E0A6EDD
:10067800000E0B6E1A0E0C6E000E0D6E1B0E0E6E1B
:10068800000E0F6E1C0E106E000E116ECBEC04F0F7
:1006980019C003FF1AC004FF1BC001FF1CC002FFE2
:1006A80020EE05F01750D9261850DA22DF500F0136
:1006B800056F20EE06F01750D9261850DA22DF50C1
:1006C800066F20EE07F01750D9261850DA22DF50AF
:1006D800076F20EE08F01750D9261850DA22DF509D
:1006E800086F20EE09F01750D9261850DA22DF508B
:1006F800096F20EE0AF01750D9261850DA22DF5079
:100708000A6F20EE0BF01750D9261850DA22DF5066
:100718000B6F20EE0CF01750D9261850DA22DF5054
:100728000C6F20EE0DF01750D9261850DA22DF5042
:100738000D6F00879CEF02F01200000E1A6E60AE7B
:10074800A8EF03F0AAEF03F036EF04F062A6AFEFCC
:1007580003F0B1EF03F0D0EF03F018C0D9FF19C0D0
:10076800DAFF020EDF6E64CF05F061CF06F062CFCC
:1007780007F0635085EC05F020EE01F01850D926FB
:100788001950DA2205C0DEFF06C0DEFF07C0DEFF13
:1007980008C0DEFFE9EF03F018C0D9FF19C0DAFF7F
:1007A800010EDF6E62CF05F061508FEC06F020EE8F
:1007B80001F01850D9261950DA2205C0DEFF06C00C
:1007C800DEFF07C0DEFF08C0DEFF20EE05F0185090
:1007D800D9261950DA2265CFDFFF20EE06F018502F
:1007E800D9261950DA2266CFDFFF20EE07F018501D
:1007F800D9261950DA2267CFDFFF20EE08F018500B
:10080800D9261950DA2268CFDFFF20EE09F01850F8
:10081800D9261950DA2269CFDFFF20EE0AF01850E6
:10082800D9261950DA226ACFDFFF20EE0BF01850D4
:10083800D9261950DA226BCFDFFF20EE0CF01850C2
:10084800D9261950DA226CCFDFFF20EE0DF01850B0
:10085800D9261950DA226DCFDFFF609E010E1A6E7D
:10086800C9EF04F00F0130AF3CEF04F03EEF04F0A5
:10087800C9EF04F032A743EF04F045EF04F064EF4A
:1008880004F018C0D9FF19C0DAFF020EDF6E34CFAA
:1008980005F031CF06F032CF07F0335185EC05F083
:1008A80020EE01F01850D9261950DA2205C0DEFFD3
:1008B80006C0DEFF07C0DEFF08C0DEFF7DEF04F0E4
:1008C80018C0D9FF19C0DAFF010EDF6E32CF05F06C
:1008D80031518FEC06F020EE01F01850D92619504E
:1008E800DA2205C0DEFF06C0DEFF07C0DEFF08C053
:1008F800DEFF20EE05F01850D9261950DA2235CF40
:10090800DFFF20EE06F01850D9261950DA2236CF2C
:10091800DFFF20EE07F01850D9261950DA2237CF1A
:10092800DFFF20EE08F01850D9261950DA2238CF08
:10093800DFFF20EE09F01850D9261950DA2239CFF6
:10094800DFFF20EE0AF01850D9261950DA223ACFE4
:10095800DFFF20EE0BF01850D9261950DA223BCFD2
:10096800DFFF20EE0CF01850D9261950DA223CCFC0
:10097800DFFF20EE0DF01850D9261950DA223DCFAE
:10098800DFFF0F01309F32EF04F01A501200020E01
:100998000918D8A4D2EF04F0D4EF04F057EF05F00B
:1009A8000CC0D9FF0DC0DAFF05C0DFFF05C012F08B
:1009B80006C013F007C014F008C015F013C012F0F9
:1009C80014C013F015C014F0156A12C005F013C056
:1009D80006F014C007F015C008F00AC0D9FF0BC014
:1009E800DAFF05C0DFFF05C012F006C013F007C02C
:1009F80014F008C015F013C012F014C013F015C09D
:100A080014F0156A12C005F013C006F014C007F000
:100A180015C008F00550030B166E05C012F006C08D
:100A280013F007C014F008C015F0030ED890123662
:100A3800133614361536E82E1AEF05F012C005F0F5
:100A480013C006F014C007F015C008F00550E00BFD
:100A58001624166E1650080F166E1650EB0B10C0A3
:100A6800D9FF11C0DAFFDF6E05C012F006C013F01F
:100A780007C014F008C015F013C012F014C013F02A
:100A880015C014F0156A12C005F013C006F014C0A2
:100A980007F015C008F00EC0D9FF0FC0DAFF05C077
:100AA800DFFF84EF05F00AC0D9FF0BC0DAFF000EA4
:100AB800DF6E0CC0D9FF0DC0DAFF000EDF6E05C077
:100AC80012F006C013F007C014F008C015F0050EA8
:100AD800D8901236133614361536E82E6CEF05F01A
:100AE80012C005F013C006F014C007F015C008F0D6
:100AF80010C0D9FF11C0DAFF05C0DFFF38EF05F0DD
:100B080012000D6E000E146E000E156E000E166E9D
:100B1800000E176E0750030B126E0738E842070BDA
:100B2800136E0650096E0A6AD89009360A36D890AC
:100B380009360A36D89009360A3609C014F00AC0B0
:100B480015F0000E15BEFF0E166E176E1350142406
:100B5800146E000E1520156E000E1620166E000E6F
:100B68001720176E14C009F015C00AF016C00BF054
:100B780017C00CF0020ED89009360A360B360C3620
:100B8800E82EBFEF05F009C014F00AC015F00BC03D
:100B980016F00CC017F012501424146E000E152015
:100BA800156E000E1620166E000E1720176E14C054
:100BB8000AF015C00BF016C00CF0096A09C014F051
:100BC8000AC015F00BC016F00CC017F00D50142415
:100BD800146E000E1520156E000E1620166E000EEF
:100BE8001720176E14C00AF015C00BF016C00CF0D1
:100BF800096A09C014F00AC015F00BC016F00CC041
:100C080017F005501424146E000E1520156E000EF2
:100C18001620166E000E1720176E14C00EF015C0A1
:100C28000FF016C010F017C011F00EC005F00FC07D
:100C380006F010C007F011C008F01200800E6F6EA9
:100C48006E50E00B800AD8A42CEF06F02EEF06F0C9
:100C580024EF06F0000E726E200E706E000E0E016C
:100C6800FA6F000EFB6F000EF86F000EF96F000EA2
:100C7800FE6F000EFF6F000EFC6F000EFD6F000E82
:100C8800E26F000EE36F000EE06F000EE16F000EE2
:100C9800E66F000EE76F000EE46F000EE56F000EC2
:100CA800EA6F000EEB6F000EE86F000EE96F000EA2
:100CB800EE6F000EEF6F000EEC6F000EED6F000E82
:100CC800F26F000EF36F000EF06F000EF16F000E62
:100CD800F66F000EF76F000EF46F000EF56F070E3B
:100CE800436FA80E446F010E456F3C0E056E100E43
:100CF800066E12EC08F0779C768C000E6F6E6ECF45
:100D080007F0E00E0716D8A48CEF06F08EEF06F079
:100D180083EF06F012000B6E0B50096E0A6AD8902A
:100D280009360A36D89009360A36D89009360A366E
:100D380009C010F00AC011F0000E11BEFF0E126EAD
:100D4800136E05C009F0050E0A6ED89009320A2EF6
:100D5800A9EF06F009501024106E000E1120116E34
:100D6800000E1220126E000E1320136E10C00CF02D
:100D780011C00DF012C00EF013C00FF00CC005F03A
:100D88000DC006F00EC007F00FC008F01200000EEC
:100D98000D6E000E0E6E000E0F6E000E106E05A08A
:100DA800D8EF06F0DAEF06F0E2EF06F009500D266C
:100DB8000A500E220B500F220C501022D8900936E0
:100DC8000A360B360C36D89008320732063205320E
:100DD8000550061007100810D8A4F5EF06F0F7EF35
:100DE80006F0D3EF06F00DC005F00EC006F00FC0F8
:100DF80007F010C008F01200080EA76E900EAB6E38
:100E0800240EAC6E080EAF6E020E7D6E000E056EDF
:100E1800000E066E08EC08F0000E056E000E066E59
:100E280003EC08F0000E056E000E066E0DEC08F0DF
:100E3800000E346E1200096E09C007F00746074617
:100E4800C2500718830B0718C26EC280C282C2B292
:100E580030EF07F032EF07F02BEF07F0C450086EC1
:100E6800076AC3500724056E000E0820066E12009C
:100E7800000EAA6E0B0ECF6EDC0ECE6E9E90CE507C
:100E8800CFCF07F0086A07C008F0076A0710396E65
:100E980008503A6E9D803A0E056E100E066EFEECF6
:100EA80007F0310ECD6E12009E9039C001F03AC0A5
:100EB80002F0B8EC07F02D4A2E2A2E5009E10A0E4E
:100EC8002D5CD8A06AEF07F06CEF07F072EF07F01F
:100ED8008CEC07F0000E2E6E000E2D6E1200380EF0
:100EE800F66E100EF76E000EF86E0900F5CF3BF0A7
:100EF8000900F5CF3CF000EE21F0140EEE6AE8068A
:100F0800FDE13D903D92000EF86E00013CEF00F0CF
:100F180037503810D8B493EF07F095EF07F0A2EFE9
:100F280007F002D8A2EF07F00500FA6E3750FD6E01
:100F38003850FE6EF850FF6EFA5012001200000E84
:100F4800896E000E8A6E000E8B6ECF0E926EFB0EAF
:100F5800936EB30E946E1E0E0F015D6F070E5C6FDD
:100F6800000E5B6FF18E1200CDA4BDEF07F0BFEF4E
:100F780007F0C7EF07F0CD900250CF6E01C0CEFF4B
:100F8800CD80CBEF07F00250CF6E01C0CEFF12002C
:100F98001AEC08F0A3EC07F0F5EC07F03CEC07F0CE
:100FA800EAEC07F000EC07F022EC06F0120002D899
:100FB800E8EF07F00500FA6E2F50FD6E3050FE6E18
:100FC800F850FF6EFA501200779C1200010EC26EA4
:100FD800300EC16E9A0EC06E000EC46E000EC36E47
:100FE8001200600ED36E000ED26E000E9B6E000EC5
:100FF8009A6E120005C037F006C038F0120005C01E
:1010080083F006C084F0120005C035F006C036F043
:10101800120005C081F006C082F0120005C02FF052
:1010280006C030F01200010E336E1200D09E12007E
:061038000200120012008C
:020000040020DA
:08000000FFFFFFFFFFFFFFFF00
:020000040030CA
:0E00000015027F7CFF8991FF0FC00FE00F40BB
:00000001FF
