:040000003AEF00F0E3
:100008003D82FACF03F0FBCF04F0F2AC0EEF00F024
:1000180010EF00F034EF00F076AC15EF00F017EFBA
:1000280000F022EF00F077AC1CEF00F01EEF00F0BC
:1000380022EF00F0F0EC07F034EF00F09DA027EF7E
:1000480000F029EF00F034EF00F09EA02EEF00F052
:1000580030EF00F034EF00F06DEC07F034EF00F013
:1000680004C0FBFF03C0FAFF3D92110088EF07F0C0
:10007800E1EC07F0580E056E100E066E13EC08F052
:10008800F28EF28C600E606EA00E0001666F010E9B
:10009800676F000E686F000E696F030E6A6F000EBF
:1000A8006B6F000E746F000E756F000E766F000E8A
:1000B800776F000E786F000E796F730E186E000E52
:1000C800196EB6EC03F00009D8B46DEF00F06FEFCD
:1000D80000F0E9EF00F00001750574117611771151
:1000E800D8A479EF00F07BEF00F08FEF00F07951A2
:1000F800D8B481EF00F083EF00F089EF00F0000E34
:10010800266E010E256EE9EF00F0000E266E000E39
:10011800256EE9EF00F0200E741908E175057611D7
:100128007711D8A49AEF00F09CEF00F0B0EF00F040
:100138007951D8B4A2EF00F0A4EF00F0AAEF00F0D4
:10014800000E246E000E236EE9EF00F0000E246E00
:10015800010E236EE9EF00F0800E741908E17505B1
:1001680076117711D8A4BBEF00F0BDEF00F0E9EFEE
:1001780000F079C060F0030E6061C5EF00F0C7EFD2
:1001880000F0CDEF00F0000E226E000E216EE9EFB8
:1001980000F0140E6065D3EF00F0D5EF00F0DDEF4E
:1001A80000F0010E6065DBEF00F0DDEF00F0E3EF3B
:1001B80000F0000E226E020E216EE9EF00F0000E34
:1001C800226E010E216EE9EF00F080A0EEEF00F044
:1001D800F0EF00F0F6EF00F0000E286E000E276E2C
:1001E8000BEF02F0000E286E010E276E0BEF02F0E7
:1001F8008B94020E21182210D8A405EF01F007EF06
:1002080001F01CEF01F08BB60CEF01F00FEF01F0DD
:10021800010E10EF01F0000EFF0A1D6E1D461D466F
:100228001D468B501D18F70B1D188B6E1DEF01F026
:100238008B863104D8A423EF01F025EF01F072EF8B
:1002480001F000016B69080E34EC07F005C061F09D
:1002580006C062F00001636B646B61C005F062C0A8
:1002680006F063C007F064C008F02C0E096E010E9A
:100278000A6E000E0B6E000E0C6EE0EC06F005C068
:1002880061F006C062F007C063F008C064F061C0A6
:100298001DF062C01EF063C01FF064C020F00D0E98
:1002A8005BEF01F0D89020321F321E321D32E82E4B
:1002B80056EF01F01DC061F01EC062F01FC063F070
:1002C80020C064F062C06CF061C06DF0650E176EFE
:1002D800000E186E29EC02F0000E316E250426106F
:1002E800D8B479EF01F07BEF01F08DEF01F02350E6
:1002F8002410D8B482EF01F084EF01F08DEF01F003
:1003080021502210D8A48BEF01F08DEF01F093EF6C
:1003180001F0000E3C6E020E3B6E61EF00F02750BC
:100328002810D8A49AEF01F09CEF01F025EF02F015
:10033800000E3C6E000E3B6E61EF00F08B848B96D6
:1003480025502610D8A4ABEF01F0ADEF01F061EF16
:1003580000F023042410D8A4B4EF01F0B6EF01F0A4
:1003680061EF00F021042210D8A4BDEF01F0BFEF27
:1003780001F061EF00F027042810D8A4C6EF01F0BF
:10038800C8EF01F09CEF01F0000E3C6E010E3B6ED1
:1003980061EF00F08B848B963104D8A4D6EF01F07E
:1003A800D8EF01F0E3EF01F0000E00016B6F650E6E
:1003B800176E000E186E29EC02F0000E316E25043F
:1003C8002610D8B4EAEF01F0ECEF01F08DEF01F060
:1003D80023502410D8B4F3EF01F0F5EF01F08DEFBE
:1003E80001F021502210D8A4FCEF01F0FEEF01F03B
:1003F80000EF02F08DEF01F027042810D8A407EFD2
:1004080002F009EF02F025EF02F0C8EF01F03BC05F
:100418001DF03CC01EF01E50000AD8B416EF02F0C2
:1004280061EF00F01D50000AD8B4CEEF01F0010AC8
:10043800D8B4FCEF00F0030AD8B4A2EF01F061EFE2
:1004480000F061EF00F03AEF00F0000E196E000EB8
:100458001A6E000E1B6E000E1C6E0F0120B737EFD0
:1004680002F039EF02F0B3EF02F020EE01F017507E
:10047800D9261850DA22DECF05F0DECF06F0DECF1F
:1004880007F0DECF08F017C0D9FF18C0DAFFDF5039
:10049800096E190E0A6E000E0B6E1A0E0C6E000E07
:1004A8000D6E1B0E0E6E000E0F6E1C0E106E000EE3
:1004B800116EE0EC04F019C023FF1AC024FF1BC022
:1004C80021FF1CC022FF20EE05F01750D926185036
:1004D800DA22DF500F01256F20EE06F01750D926DB
:1004E8001850DA22DF50266F20EE07F01750D92671
:1004F8001850DA22DF50276F20EE08F01750D9265F
:100508001850DA22DF50286F20EE09F01750D9264C
:100518001850DA22DF50296F20EE0AF01750D9263A
:100528001850DA22DF502A6F20EE0BF01750D92628
:100538001850DA22DF502B6F20EE0CF01750D92616
:100548001850DA22DF502C6F20EE0DF01750D92604
:100558001850DA22DF502D6F2087B5EF03F010B75F
:10056800B8EF02F0BAEF02F034EF03F020EE01F03A
:100578001750D9261850DA22DECF05F0DECF06F064
:10058800DECF07F0DECF08F017C0D9FF18C0DAFFBA
:10059800DF50096E190E0A6E000E0B6E1A0E0C6EE5
:1005A800000E0D6E1B0E0E6E000E0F6E1C0E106EE2
:1005B800000E116EE0EC04F019C013FF1AC014FF0E
:1005C8001BC011FF1CC012FF20EE05F01750D926E2
:1005D8001850DA22DF500F01156F20EE06F0175081
:1005E800D9261850DA22DF50166F20EE07F0175080
:1005F800D9261850DA22DF50176F20EE08F017506E
:10060800D9261850DA22DF50186F20EE09F017505B
:10061800D9261850DA22DF50196F20EE0AF0175049
:10062800D9261850DA22DF501A6F20EE0BF0175037
:10063800D9261850DA22DF501B6F20EE0CF0175025
:10064800D9261850DA22DF501C6F20EE0DF0175013
:10065800D9261850DA22DF501D6F1087B1EF02F04B
:1006680000B739EF03F03BEF03F0B5EF03F020EEEE
:1006780001F01750D9261850DA22DECF05F0DECF68
:1006880006F0DECF07F0DECF08F017C0D9FF18C09C
:10069800DAFFDF50096E190E0A6E000E0B6E1A0E85
:1006A8000C6E000E0D6E1B0E0E6E000E0F6E1C0EE5
:1006B800106E000E116EE0EC04F019C003FF1AC0B2
:1006C80004FF1BC001FF1CC002FF20EE05F01750FD
:1006D800D9261850DA22DF500F01056F20EE06F0F8
:1006E8001750D9261850DA22DF50066F20EE07F08F
:1006F8001750D9261850DA22DF50076F20EE08F07D
:100708001750D9261850DA22DF50086F20EE09F06A
:100718001750D9261850DA22DF50096F20EE0AF058
:100728001750D9261850DA22DF500A6F20EE0BF046
:100738001750D9261850DA22DF500B6F20EE0CF034
:100748001750D9261850DA22DF500C6F20EE0DF022
:100758001750D9261850DA22DF500D6F0087B1EFF5
:1007680002F01200000E1A6E60AEBDEF03F0BFEF8C
:1007780003F04BEF04F062A6C4EF03F0C6EF03F0FA
:10078800E5EF03F018C0D9FF19C0DAFF020EDF6EDB
:1007980064CF05F061CF06F062CF07F063509AECA2
:1007A80005F020EE01F01850D9261950DA2205C0BC
:1007B800DEFF06C0DEFF07C0DEFF08C0DEFFFEEF7B
:1007C80003F018C0D9FF19C0DAFF010EDF6E62CF3F
:1007D80005F06150A4EC06F020EE01F01850D9267F
:1007E8001950DA2205C0DEFF06C0DEFF07C0DEFFB3
:1007F80008C0DEFF20EE05F01850D9261950DA227D
:1008080065CFDFFF20EE06F01850D9261950DA22FE
:1008180066CFDFFF20EE07F01850D9261950DA22EC
:1008280067CFDFFF20EE08F01850D9261950DA22DA
:1008380068CFDFFF20EE09F01850D9261950DA22C8
:1008480069CFDFFF20EE0AF01850D9261950DA22B6
:100858006ACFDFFF20EE0BF01850D9261950DA22A4
:100868006BCFDFFF20EE0CF01850D9261950DA2292
:100878006CCFDFFF20EE0DF01850D9261950DA2280
:100888006DCFDFFF609E010E1A6EDEEF04F00F01E0
:1008980030AF51EF04F053EF04F0DEEF04F032A76D
:1008A80058EF04F05AEF04F079EF04F018C0D9FFBC
:1008B80019C0DAFF020EDF6E34CF05F031CF06F033
:1008C80032CF07F033519AEC05F020EE01F01850C2
:1008D800D9261950DA2205C0DEFF06C0DEFF07C0A0
:1008E800DEFF08C0DEFF92EF04F018C0D9FF19C080
:1008F800DAFF010EDF6E32CF05F03151A4EC06F0BD
:1009080020EE01F01850D9261950DA2205C0DEFF72
:1009180006C0DEFF07C0DEFF08C0DEFF20EE05F0E0
:100928001850D9261950DA2235CFDFFF20EE06F00D
:100938001850D9261950DA2236CFDFFF20EE07F0FB
:100948001850D9261950DA2237CFDFFF20EE08F0E9
:100958001850D9261950DA2238CFDFFF20EE09F0D7
:100968001850D9261950DA2239CFDFFF20EE0AF0C5
:100978001850D9261950DA223ACFDFFF20EE0BF0B3
:100988001850D9261950DA223BCFDFFF20EE0CF0A1
:100998001850D9261950DA223CCFDFFF20EE0DF08F
:1009A8001850D9261950DA223DCFDFFF0F01309FAA
:1009B80047EF04F01A501200020E0918D8A4E7EF06
:1009C80004F0E9EF04F06CEF05F00CC0D9FF0DC09E
:1009D800DAFF05C0DFFF05C012F006C013F007C03C
:1009E80014F008C015F013C012F014C013F015C0AD
:1009F80014F0156A12C005F013C006F014C007F011
:100A080015C008F00AC0D9FF0BC0DAFF05C0DFFF28
:100A180005C012F006C013F007C014F008C015F0A6
:100A280013C012F014C013F015C014F0156A12C0E8
:100A380005F013C006F014C007F015C008F0055003
:100A4800030B166E05C012F006C013F007C014F0B1
:100A580008C015F0030ED890123613361436153622
:100A6800E82E2FEF05F012C005F013C006F014C0F1
:100A780007F015C008F00550E00B1624166E165046
:100A8800080F166E1650EB0B10C0D9FF11C0DAFF15
:100A9800DF6E05C012F006C013F007C014F008C0DE
:100AA80015F013C012F014C013F015C014F0156A35
:100AB80012C005F013C006F014C007F015C008F006
:100AC8000EC0D9FF0FC0DAFF05C0DFFF99EF05F0B0
:100AD8000AC0D9FF0BC0DAFF000EDF6E0CC0D9FFC9
:100AE8000DC0DAFF000EDF6E05C012F006C013F06D
:100AF80007C014F008C015F0050ED890123613364A
:100B080014361536E82E81EF05F012C005F013C033
:100B180006F014C007F015C008F010C0D9FF11C0C6
:100B2800DAFF05C0DFFF4DEF05F012000D6E000E75
:100B3800146E000E156E000E166E000E176E07501E
:100B4800030B126E0738E842070B136E0650096E46
:100B58000A6AD89009360A36D89009360A36D890E3
:100B680009360A3609C014F00AC015F0000E15BE81
:100B7800FF0E166E176E13501424146E000E1520F7
:100B8800156E000E1620166E000E1720176E14C074
:100B980009F015C00AF016C00BF017C00CF0020ED1
:100BA800D89009360A360B360C36E82ED4EF05F005
:100BB80009C014F00AC015F00BC016F00CC017F0ED
:100BC80012501424146E000E1520156E000E1620F7
:100BD800166E000E1720176E14C00AF015C00BF021
:100BE80016C00CF0096A09C014F00AC015F00BC051
:100BF80016F00CC017F00D501424146E000E1520BA
:100C0800156E000E1620166E000E1720176E14C0F3
:100C18000AF015C00BF016C00CF0096A09C014F0F0
:100C28000AC015F00BC016F00CC017F005501424BC
:100C3800146E000E1520156E000E1620166E000E8E
:100C48001720176E14C00EF015C00FF016C010F064
:100C580017C011F00EC005F00FC006F010C007F065
:100C680011C008F01200800E6F6E6E50E00B800A03
:100C7800D8A441EF06F043EF06F039EF06F0000E76
:100C8800726E200E706E000E0E01FA6F000EFB6F72
:100C9800000EF86F000EF96F000EFE6F000EFF6F6A
:100CA800000EFC6F000EFD6F000EE26F000EE36F8A
:100CB800000EE06F000EE16F000EE66F000EE76FAA
:100CC800000EE46F000EE56F000EEA6F000EEB6F8A
:100CD800000EE86F000EE96F000EEE6F000EEF6F6A
:100CE800000EEC6F000EED6F000EF26F000EF36F4A
:100CF800000EF06F000EF16F000EF66F000EF76F2A
:100D0800000EF46F000EF56F070E436FA80E446FC8
:100D1800010E456F660E056E100E066E27EC08F084
:100D2800779C768C000E6F6E6ECF07F0E00E07167C
:100D3800D8A4A1EF06F0A3EF06F098EF06F0120092
:100D48000B6E0B50096E0A6AD89009360A36D8908D
:100D580009360A36D89009360A3609C010F00AC092
:100D680011F0000E11BEFF0E126E136E05C009F0D1
:100D7800050E0A6ED89009320A2EBEEF06F0095009
:100D88001024106E000E1120116E000E1220126E2B
:100D9800000E1320136E10C00CF011C00DF012C01D
:100DA8000EF013C00FF00CC005F00DC006F00EC019
:100DB80007F00FC008F01200000E0D6E000E0E6E48
:100DC800000E0F6E000E106E05A0EDEF06F0EFEFAF
:100DD80006F0F7EF06F009500D260A500E220B50C8
:100DE8000F220C501022D89009360A360B360C36D2
:100DF800D89008320732063205320550061007101F
:100E08000810D8A40AEF07F00CEF07F0E8EF06F097
:100E18000DC005F00EC006F00FC007F010C008F0B6
:100E28001200080EA76E900EAB6E240EAC6E080E64
:100E3800AF6E020E7D6E000E056E000E066E1DEC86
:100E480008F0000E056E000E066E18EC08F0000E95
:100E5800056E000E066E22EC08F0000E326E1200CF
:100E6800096E09C007F007460746C2500718830BEA
:100E78000718C26EC280C282C2B245EF07F047EFC0
:100E880007F040EF07F0C450086E076AC350072404
:100E9800056E000E0820066E1200000EAA6E0B0EDC
:100EA800CF6EDC0ECE6E9E90CE50CFCF07F0086A84
:100EB80007C008F0076A0710396E08503A6E9D801F
:100EC800640E056E100E066E13EC08F0310ECD6E32
:100ED80012009E9039C001F03AC002F0CDEC07F044
:100EE8002B4A2C2A2C5009E10A0E2B5CD8A07FEF44
:100EF80007F081EF07F087EF07F0A1EC07F0000E8D
:100F08002C6E000E2B6E1200620EF66E100EF76E2F
:100F1800000EF86E0900F5CF3BF00900F5CF3CF064
:100F280000EE21F0120EEE6AE806FDE13D903D92DA
:100F3800000EF86E00013CEF00F037503810D8B4BE
:100F4800A8EF07F0AAEF07F0B7EF07F002D8B7EF5E
:100F580007F00500FA6E3750FD6E3850FE6EF850F7
:100F6800FF6EFA5012001200000E896E000E8A6E93
:100F7800000E8B6ECF0E926EFB0E936EB30E946EB8
:100F88001E0E0F015D6F070E5C6F000E5B6FF18E1A
:100F98001200CDA4D2EF07F0D4EF07F0DCEF07F092
:100FA800CD900250CF6E01C0CEFFCD80E0EF07F0AC
:100FB8000250CF6E01C0CEFF12002FEC08F0B8EC43
:100FC80007F00AEC08F051EC07F0FFEC07F015EC1D
:100FD80007F037EC06F0120002D8FDEF07F0050025
:100FE800FA6E2D50FD6E2E50FE6EF850FF6EFA50C0
:100FF8001200779C1200010EC26E300EC16E9A0E5E
:10100800C06E000EC46E000EC36E1200600ED36E6A
:10101800000ED26E000E9B6E000E9A6E120005C076
:1010280037F006C038F0120005C033F006C034F0BF
:10103800120005C035F006C036F0120005C081F078
:1010480006C082F0120005C02DF006C02EF0120076
:10105800010E316E1200D09E120002001200120022
:020000040020DA
:08000000FFFFFFFFFFFFFFFF00
:020000040030CA
:0E00000015027F7CFF8991FF0FC00FE00F40BB
:00000001FF
