:040000003AEF00F0E3
:100008003D82FACF03F0FBCF04F0F2AC0EEF00F024
:1000180010EF00F034EF00F076AC15EF00F017EFBA
:1000280000F022EF00F077AC1CEF00F01EEF00F0BC
:1000380022EF00F0BBEC07F034EF00F09DA027EFB3
:1000480000F029EF00F034EF00F09EA02EEF00F052
:1000580030EF00F034EF00F038EC07F034EF00F048
:1000680004C0FBFF03C0FAFF3D92110053EF07F0F5
:10007800ACEC07F0EE0E056E0F0E066EDEEC07F028
:10008800F28EF28C600E606EA00E0001666F010E9B
:10009800676F000E686F000E696F030E6A6F000EBF
:1000A8006B6F000E746F000E756F000E766F000E8A
:1000B800776F000E786F000E796F730E186E000E52
:1000C800196E81EC03F00009D8B46DEF00F06FEF02
:1000D80000F0D3EF00F00001750574117611771167
:1000E800D8A479EF00F07BEF00F08FEF00F07951A2
:1000F800D8B481EF00F083EF00F089EF00F0000E34
:10010800266E010E256ED3EF00F0000E266E000E4F
:10011800256ED3EF00F0200E741908E175057611ED
:100128007711D8A49AEF00F09CEF00F0B0EF00F040
:100138007951D8B4A2EF00F0A4EF00F0AAEF00F0D4
:10014800000E246E000E236ED3EF00F0000E246E16
:10015800010E236ED3EF00F0800E741908E17505C7
:1001680076117711D8A4BBEF00F0BDEF00F0D3EF04
:1001780000F079C060F0030E6061C5EF00F0C7EFD2
:1001880000F0CDEF00F0000E226E000E216ED3EFCE
:1001980000F0000E226E010E216ED3EF00F080A059
:1001A800D8EF00F0DAEF00F0E0EF00F0000E286E74
:1001B800000E276ED6EF01F0000E286E010E276E96
:1001C800D6EF01F08B948B863104D8A4EEEF00F0C3
:1001D800F0EF00F03DEF01F000016B69080EFFEC55
:1001E80006F005C061F006C062F00001636B646B45
:1001F80061C005F062C006F063C007F064C008F093
:100208002C0E096E010E0A6E000E0B6E000E0C6E9F
:10021800ABEC06F005C061F006C062F007C063F001
:1002280008C064F061C01DF062C01EF063C01FF01A
:1002380064C020F00D0E26EF01F0D89020321F3256
:100248001E321D32E82E21EF01F01DC061F01EC0E4
:1002580062F01FC063F020C064F062C06CF061C03F
:100268006DF0650E176E000E186EF4EC01F0000EBE
:10027800316E25042610D8B444EF01F046EF01F0A2
:100288004FEF01F023502410D8A44DEF01F04FEFA9
:1002980001F055EF01F0000E3C6E020E3B6E61EF6F
:1002A80000F027502810D8B45CEF01F05EEF01F0A1
:1002B80067EF01F021502210D8A465EF01F067EF35
:1002C80001F0F0EF01F0000E3C6E000E3B6E61EFA6
:1002D80000F08B848B9625502610D8A476EF01F079
:1002E80078EF01F061EF00F023042410D8A47FEF29
:1002F80001F081EF01F061EF00F027042810D8A485
:1003080088EF01F08AEF01F067EF01F02104221075
:10031800D8A491EF01F093EF01F067EF01F0000E20
:100328003C6E010E3B6E61EF00F08B848B963104BE
:10033800D8A4A1EF01F0A3EF01F0AEEF01F0000E99
:1003480000016B6F650E176E000E186EF4EC01F06D
:10035800000E316E25042610D8B4B5EF01F0B7EFC2
:1003680001F04FEF01F023502410D8A4BEEF01F0A4
:10037800C0EF01F0C2EF01F04FEF01F027042810A1
:10038800D8A4C9EF01F0CBEF01F0F0EF01F02104A0
:100398002210D8A4D2EF01F0D4EF01F0F0EF01F071
:1003A80093EF01F03BC01DF03CC01EF01E50000A48
:1003B800D8B4E1EF01F061EF00F01D50000AD8B4A5
:1003C80099EF01F0010AD8B4E6EF00F0030AD8B4B7
:1003D8006DEF01F061EF00F061EF00F03AEF00F02F
:1003E800000E196E000E1A6E000E1B6E000E1C6EAB
:1003F8000F0120B702EF02F004EF02F07EEF02F0E7
:1004080020EE01F01750D9261850DA22DECF05F079
:10041800DECF06F0DECF07F0DECF08F017C0D9FF39
:1004280018C0DAFFDF50096E190E0A6E000E0B6E47
:100438001A0E0C6E000E0D6E1B0E0E6E000E0F6E59
:100448001C0E106E000E116EABEC04F019C023FFE9
:100458001AC024FF1BC021FF1CC022FF20EE05F09C
:100468001750D9261850DA22DF500F01256F20EED9
:1004780006F01750D9261850DA22DF50266F20EEE2
:1004880007F01750D9261850DA22DF50276F20EED0
:1004980008F01750D9261850DA22DF50286F20EEBE
:1004A80009F01750D9261850DA22DF50296F20EEAC
:1004B8000AF01750D9261850DA22DF502A6F20EE9A
:1004C8000BF01750D9261850DA22DF502B6F20EE88
:1004D8000CF01750D9261850DA22DF502C6F20EE76
:1004E8000DF01750D9261850DA22DF502D6F2087CB
:1004F80080EF03F010B783EF02F085EF02F0FFEF13
:1005080002F020EE01F01750D9261850DA22DECF7B
:1005180005F0DECF06F0DECF07F0DECF08F017C01B
:10052800D9FF18C0DAFFDF50096E190E0A6E000EE7
:100538000B6E1A0E0C6E000E0D6E1B0E0E6E000E5C
:100548000F6E1C0E106E000E116EABEC04F019C08D
:1005580013FF1AC014FF1BC011FF1CC012FF20EEAE
:1005680005F01750D9261850DA22DF500F01156F01
:1005780020EE06F01750D9261850DA22DF50166FF1
:1005880020EE07F01750D9261850DA22DF50176FDF
:1005980020EE08F01750D9261850DA22DF50186FCD
:1005A80020EE09F01750D9261850DA22DF50196FBB
:1005B80020EE0AF01750D9261850DA22DF501A6FA9
:1005C80020EE0BF01750D9261850DA22DF501B6F97
:1005D80020EE0CF01750D9261850DA22DF501C6F85
:1005E80020EE0DF01750D9261850DA22DF501D6F73
:1005F80010877CEF02F000B704EF03F006EF03F07A
:1006080080EF03F020EE01F01750D9261850DA22B7
:10061800DECF05F0DECF06F0DECF07F0DECF08F044
:1006280017C0D9FF18C0DAFFDF50096E190E0A6E1D
:10063800000E0B6E1A0E0C6E000E0D6E1B0E0E6E5B
:10064800000E0F6E1C0E106E000E116EABEC04F057
:1006580019C003FF1AC004FF1BC001FF1CC002FF22
:1006680020EE05F01750D9261850DA22DF500F0176
:10067800056F20EE06F01750D9261850DA22DF5001
:10068800066F20EE07F01750D9261850DA22DF50EF
:10069800076F20EE08F01750D9261850DA22DF50DD
:1006A800086F20EE09F01750D9261850DA22DF50CB
:1006B800096F20EE0AF01750D9261850DA22DF50B9
:1006C8000A6F20EE0BF01750D9261850DA22DF50A7
:1006D8000B6F20EE0CF01750D9261850DA22DF5095
:1006E8000C6F20EE0DF01750D9261850DA22DF5083
:1006F8000D6F00877CEF02F01200000E1A6E60AEDC
:1007080088EF03F08AEF03F016EF04F062A68FEF8C
:1007180003F091EF03F0B0EF03F018C0D9FF19C050
:10072800DAFF020EDF6E64CF05F061CF06F062CF0C
:1007380007F0635065EC05F020EE01F01850D9265B
:100748001950DA2205C0DEFF06C0DEFF07C0DEFF53
:1007580008C0DEFFC9EF03F018C0D9FF19C0DAFFDF
:10076800010EDF6E62CF05F061506FEC06F020EEEF
:1007780001F01850D9261950DA2205C0DEFF06C04C
:10078800DEFF07C0DEFF08C0DEFF20EE05F01850D0
:10079800D9261950DA2265CFDFFF20EE06F018506F
:1007A800D9261950DA2266CFDFFF20EE07F018505D
:1007B800D9261950DA2267CFDFFF20EE08F018504B
:1007C800D9261950DA2268CFDFFF20EE09F0185039
:1007D800D9261950DA2269CFDFFF20EE0AF0185027
:1007E800D9261950DA226ACFDFFF20EE0BF0185015
:1007F800D9261950DA226BCFDFFF20EE0CF0185003
:10080800D9261950DA226CCFDFFF20EE0DF01850F0
:10081800D9261950DA226DCFDFFF609E010E1A6EBD
:10082800A9EF04F00F0130AF1CEF04F01EEF04F045
:10083800A9EF04F032A723EF04F025EF04F044EF0A
:1008480004F018C0D9FF19C0DAFF020EDF6E34CFEA
:1008580005F031CF06F032CF07F0335165EC05F0E3
:1008680020EE01F01850D9261950DA2205C0DEFF13
:1008780006C0DEFF07C0DEFF08C0DEFF5DEF04F044
:1008880018C0D9FF19C0DAFF010EDF6E32CF05F0AC
:1008980031516FEC06F020EE01F01850D9261950AE
:1008A800DA2205C0DEFF06C0DEFF07C0DEFF08C093
:1008B800DEFF20EE05F01850D9261950DA2235CF80
:1008C800DFFF20EE06F01850D9261950DA2236CF6D
:1008D800DFFF20EE07F01850D9261950DA2237CF5B
:1008E800DFFF20EE08F01850D9261950DA2238CF49
:1008F800DFFF20EE09F01850D9261950DA2239CF37
:10090800DFFF20EE0AF01850D9261950DA223ACF24
:10091800DFFF20EE0BF01850D9261950DA223BCF12
:10092800DFFF20EE0CF01850D9261950DA223CCF00
:10093800DFFF20EE0DF01850D9261950DA223DCFEE
:10094800DFFF0F01309F12EF04F01A501200020E61
:100958000918D8A4B2EF04F0B4EF04F037EF05F0AB
:100968000CC0D9FF0DC0DAFF05C0DFFF05C012F0CB
:1009780006C013F007C014F008C015F013C012F039
:1009880014C013F015C014F0156A12C005F013C096
:1009980006F014C007F015C008F00AC0D9FF0BC054
:1009A800DAFF05C0DFFF05C012F006C013F007C06C
:1009B80014F008C015F013C012F014C013F015C0DD
:1009C80014F0156A12C005F013C006F014C007F041
:1009D80015C008F00550030B166E05C012F006C0CE
:1009E80013F007C014F008C015F0030ED8901236A3
:1009F800133614361536E82EFAEF04F012C005F057
:100A080013C006F014C007F015C008F00550E00B3D
:100A18001624166E1650080F166E1650EB0B10C0E3
:100A2800D9FF11C0DAFFDF6E05C012F006C013F05F
:100A380007C014F008C015F013C012F014C013F06A
:100A480015C014F0156A12C005F013C006F014C0E2
:100A580007F015C008F00EC0D9FF0FC0DAFF05C0B7
:100A6800DFFF64EF05F00AC0D9FF0BC0DAFF000E04
:100A7800DF6E0CC0D9FF0DC0DAFF000EDF6E05C0B7
:100A880012F006C013F007C014F008C015F0050EE8
:100A9800D8901236133614361536E82E4CEF05F07A
:100AA80012C005F013C006F014C007F015C008F016
:100AB80010C0D9FF11C0DAFF05C0DFFF18EF05F03D
:100AC80012000D6E000E146E000E156E000E166EDE
:100AD800000E176E0750030B126E0738E842070B1B
:100AE800136E0650096E0A6AD89009360A36D890ED
:100AF80009360A36D89009360A3609C014F00AC0F1
:100B080015F0000E15BEFF0E166E176E1350142446
:100B1800146E000E1520156E000E1620166E000EAF
:100B28001720176E14C009F015C00AF016C00BF094
:100B380017C00CF0020ED89009360A360B360C3660
:100B4800E82E9FEF05F009C014F00AC015F00BC09D
:100B580016F00CC017F012501424146E000E152055
:100B6800156E000E1620166E000E1720176E14C094
:100B78000AF015C00BF016C00CF0096A09C014F091
:100B88000AC015F00BC016F00CC017F00D50142455
:100B9800146E000E1520156E000E1620166E000E2F
:100BA8001720176E14C00AF015C00BF016C00CF011
:100BB800096A09C014F00AC015F00BC016F00CC081
:100BC80017F005501424146E000E1520156E000E33
:100BD8001620166E000E1720176E14C00EF015C0E2
:100BE8000FF016C010F017C011F00EC005F00FC0BE
:100BF80006F010C007F011C008F01200800E6F6EEA
:100C08006E50E00B800AD8A40CEF06F00EEF06F049
:100C180004EF06F0000E726E200E706E000E0E01CC
:100C2800FA6F000EFB6F000EF86F000EF96F000EE2
:100C3800FE6F000EFF6F000EFC6F000EFD6F000EC2
:100C4800E26F000EE36F000EE06F000EE16F000E22
:100C5800E66F000EE76F000EE46F000EE56F000E02
:100C6800EA6F000EEB6F000EE86F000EE96F000EE2
:100C7800EE6F000EEF6F000EEC6F000EED6F000EC2
:100C8800F26F000EF36F000EF06F000EF16F000EA2
:100C9800F66F000EF76F000EF46F000EF56F070E7B
:100CA800436FA80E446F010E456FFC0E056E0F0EC4
:100CB800066EF2EC07F0779C768C000E6F6E6ECFA6
:100CC80007F0E00E0716D8A46CEF06F06EEF06F0FA
:100CD80063EF06F012000B6E0B50096E0A6AD8908B
:100CE80009360A36D89009360A36D89009360A36AF
:100CF80009C010F00AC011F0000E11BEFF0E126EEE
:100D0800136E05C009F0050E0A6ED89009320A2E36
:100D180089EF06F009501024106E000E1120116E94
:100D2800000E1220126E000E1320136E10C00CF06D
:100D380011C00DF012C00EF013C00FF00CC005F07A
:100D48000DC006F00EC007F00FC008F01200000E2C
:100D58000D6E000E0E6E000E0F6E000E106E05A0CA
:100D6800B8EF06F0BAEF06F0C2EF06F009500D260C
:100D78000A500E220B500F220C501022D890093620
:100D88000A360B360C36D89008320732063205324E
:100D98000550061007100810D8A4D5EF06F0D7EFB5
:100DA80006F0B3EF06F00DC005F00EC006F00FC058
:100DB80007F010C008F01200080EA76E900EAB6E78
:100DC800240EAC6E080EAF6E020E7D6E000E056E20
:100DD800000E066EE8EC07F0000E056E000E066EBB
:100DE800E3EC07F0000E056E000E066EEDEC07F062
:100DF800000E326E1200096E09C007F0074607465A
:100E0800C2500718830B0718C26EC280C282C2B2D2
:100E180010EF07F012EF07F00BEF07F0C450086E61
:100E2800076AC3500724056E000E0820066E1200DC
:100E3800000EAA6E0B0ECF6EDC0ECE6E9E90CE50BC
:100E4800CFCF07F0086A07C008F0076A0710396EA5
:100E580008503A6E9D80FA0E056E0F0E066EDEEC97
:100E680007F0310ECD6E12009E9039C001F03AC0E5
:100E780002F098EC07F02B4A2C2A2C5009E10A0EB4
:100E88002B5CD8A04AEF07F04CEF07F052EF07F0C1
:100E98006CEC07F0000E2C6E000E2B6E1200F80E94
:100EA800F66E0F0EF76E000EF86E0900F5CF3BF0E8
:100EB8000900F5CF3CF000EE21F0120EEE6AE806CC
:100EC800FDE13D903D92000EF86E00013CEF00F010
:100ED80037503810D8B473EF07F075EF07F082EF8A
:100EE80007F002D882EF07F00500FA6E3750FD6E62
:100EF8003850FE6EF850FF6EFA5012001200000EC5
:100F0800896E000E8A6E000E8B6ECF0E926EFB0EEF
:100F1800936EB30E946E1E0E0F015D6F070E5C6F1D
:100F2800000E5B6FF18E1200CDA49DEF07F09FEFCE
:100F380007F0A7EF07F0CD900250CF6E01C0CEFFAB
:100F4800CD80ABEF07F00250CF6E01C0CEFF12008C
:100F5800FAEC07F083EC07F0D5EC07F01CEC07F08F
:100F6800CAEC07F0E0EC06F002EC06F0120002D83A
:100F7800C8EF07F00500FA6E2D50FD6E2E50FE6E7C
:100F8800F850FF6EFA501200779C1200010EC26EE4
:100F9800300EC16E9A0EC06E000EC46E000EC36E87
:100FA8001200600ED36E000ED26E000E9B6E000E05
:100FB8009A6E120005C037F006C038F0120005C05E
:100FC80033F006C034F0120005C035F006C036F024
:100FD800120005C081F006C082F0120005C02DF095
:100FE80006C02EF01200010E316E1200D09E1200C3
:060FF800020012001200CD
:020000040020DA
:08000000FFFFFFFFFFFFFFFF00
:020000040030CA
:0E00000015027F7CFF8991FF0FC00FE00F40BB
:00000001FF
