:040000003AEF00F0E3
:100008003D82FACF03F0FBCF04F0F2AC0EEF00F024
:1000180010EF00F034EF00F076AC15EF00F017EFBA
:1000280000F022EF00F077AC1CEF00F01EEF00F0BC
:1000380022EF00F0ACEC10F034EF00F09DA027EFB9
:1000480000F029EF00F034EF00F09EA02EEF00F052
:1000580030EF00F034EF00F02EEC10F034EF00F049
:1000680004C0FBFF03C0FAFF3D921100B7EF0FF089
:0F1000000043414E20524543454956455200009A
:101010009DEC10F0F00E056E210E066EDFEC10F068
:10102000F28EF28C600E606EA00E00018A6F010ECF
:101030008B6F000E8C6F000E8D6F030E8E6F000E87
:101040008F6F000E986F000E996F000E9A6F000E52
:101050009B6F000E9C6F000E9D6FFE0EBBEC10F0A0
:10106000410EBBEC10F0FE0EBBEC10F0510EBBECD1
:1010700010F0FE0EBBEC10F0460EBBEC10F0010EB3
:101080001E6E100E1F6E8AEC10F01A0E236E5E0E8E
:10109000226E6E0EE82EFED7222EFCD7232EFAD714
:1010A00000D0970E186E000E196EA6EC0BF000091A
:1010B000D8B45DEF08F05FEF08F0D9EF08F0000159
:1010C000990598119A119B11D8A469EF08F06BEF5C
:1010D00008F07FEF08F09D51D8B471EF08F073EF7E
:1010E00008F079EF08F0000E2B6E010E2A6ED9EF92
:1010F00008F0000E2B6E000E2A6ED9EF08F0200EBD
:10110000981908E199059A119B11D8A48AEF08F063
:101110008CEF08F0A0EF08F09D51D8B492EF08F0E2
:1011200094EF08F09AEF08F0000E296E000E286E7A
:10113000D9EF08F0000E296E010E286ED9EF08F0E5
:10114000800E981908E199059A119B11D8A4ABEF6C
:1011500008F0ADEF08F0D9EF08F09DC084F0030E61
:101160008461B5EF08F0B7EF08F0BDEF08F0000EAE
:10117000276E000E266ED9EF08F0140E8465C3EFBB
:1011800008F0C5EF08F0CDEF08F0010E8465CBEF55
:1011900008F0CDEF08F0D3EF08F0000E276E020E36
:1011A000266ED9EF08F0000E276E010E266ED9EFDD
:1011B00008F080A0DEEF08F0E0EF08F0E6EF08F0BE
:1011C000000E2D6E000E2C6EFBEF09F0000E2D6E42
:1011D000010E2C6EFBEF09F08B94020E26182710DF
:1011E000D8A4F5EF08F0F7EF08F00CEF09F08BB694
:1011F000FCEF08F0FFEF08F0010E00EF09F0000E21
:10120000FF0A226E2246224622468B502218F70BF6
:1012100022188B6E0DEF09F08B863704D8A413EFDC
:1012200009F015EF09F062EF09F000018F69080E6F
:10123000F5EC0FF005C085F006C086F00001876B65
:10124000886B85C005F086C006F087C007F088C0AF
:1012500008F02C0E096E010E0A6E000E0B6E000EC9
:101260000C6E5BEC0FF005C085F006C086F007C081
:1012700087F008C088F085C022F086C023F087C0C0
:1012800024F088C025F00D0E4BEF09F0D8902532E0
:10129000243223322232E82E46EF09F022C085F0B4
:1012A00023C086F024C087F025C088F086C090F067
:1012B00085C091F0890E176E000E186E19EC0AF0B9
:1012C000000E376E2A042B10D8B469EF09F06BEFCB
:1012D00009F07DEF09F028502910D8B472EF09F019
:1012E00074EF09F07DEF09F026502710D8A47BEFAA
:1012F00009F07DEF09F083EF09F0000E3C6E020E5D
:101300003B6E51EF08F02C502D10D8A48AEF09F055
:101310008CEF09F015EF0AF0000E3C6E000E3B6EEC
:1013200051EF08F08B848B962A502B10D8A49BEF9A
:1013300009F09DEF09F051EF08F028042910D8A416
:10134000A4EF09F0A6EF09F051EF08F026042710EA
:10135000D8A4ADEF09F0AFEF09F051EF08F02C047D
:101360002D10D8A4B6EF09F0B8EF09F08CEF09F012
:10137000000E3C6E010E3B6E51EF08F08B848B9695
:101380003704D8A4C6EF09F0C8EF09F0D3EF09F08D
:10139000000E00018F6F890E176E000E186E19EC8B
:1013A0000AF0000E376E2A042B10D8B4DAEF09F0D9
:1013B000DCEF09F07DEF09F028502910D8B4E3EFF5
:1013C00009F0E5EF09F07DEF09F026502710D8A4C9
:1013D000ECEF09F0EEEF09F0F0EF09F07DEF09F026
:1013E0002C042D10D8A4F7EF09F0F9EF09F015EF50
:1013F0000AF0B8EF09F03BC022F03CC023F02350C4
:10140000000AD8B406EF0AF051EF08F02250000AA3
:10141000D8B4BEEF09F0010AD8B4ECEF08F0030A23
:10142000D8B492EF09F051EF08F051EF08F03AEF1D
:1014300000F0000E196E000E1A6E000E1B6E000EEC
:101440001C6E0F0120B727EF0AF029EF0AF0A3EF77
:101450000AF020EE01F01750D9261850DA22DECF1C
:1014600005F0DECF06F0DECF07F0DECF08F017C0C4
:10147000D9FF18C0DAFFDF50096E190E0A6E000E90
:101480000B6E1A0E0C6E000E0D6E1B0E0E6E000E05
:101490000F6E1C0E106E000E116ED0EC0CF019C009
:1014A00023FF1AC024FF1BC021FF1CC022FF20EE17
:1014B00005F01750D9261850DA22DF500F01256F9A
:1014C00020EE06F01750D9261850DA22DF50266F8A
:1014D00020EE07F01750D9261850DA22DF50276F78
:1014E00020EE08F01750D9261850DA22DF50286F66
:1014F00020EE09F01750D9261850DA22DF50296F54
:1015000020EE0AF01750D9261850DA22DF502A6F41
:1015100020EE0BF01750D9261850DA22DF502B6F2F
:1015200020EE0CF01750D9261850DA22DF502C6F1D
:1015300020EE0DF01750D9261850DA22DF502D6F0B
:101540002087A5EF0BF010B7A8EF0AF0AAEF0AF07A
:1015500024EF0BF020EE01F01750D9261850DA22B4
:10156000DECF05F0DECF06F0DECF07F0DECF08F0ED
:1015700017C0D9FF18C0DAFFDF50096E190E0A6EC6
:10158000000E0B6E1A0E0C6E000E0D6E1B0E0E6E04
:10159000000E0F6E1C0E106E000E116ED0EC0CF0D3
:1015A00019C013FF1AC014FF1BC011FF1CC012FF8B
:1015B00020EE05F01750D9261850DA22DF500F011F
:1015C000156F20EE06F01750D9261850DA22DF509A
:1015D000166F20EE07F01750D9261850DA22DF5088
:1015E000176F20EE08F01750D9261850DA22DF5076
:1015F000186F20EE09F01750D9261850DA22DF5064
:10160000196F20EE0AF01750D9261850DA22DF5051
:101610001A6F20EE0BF01750D9261850DA22DF503F
:101620001B6F20EE0CF01750D9261850DA22DF502D
:101630001C6F20EE0DF01750D9261850DA22DF501B
:101640001D6F1087A1EF0AF000B729EF0BF02BEF09
:101650000BF0A5EF0BF020EE01F01750D926185033
:10166000DA22DECF05F0DECF06F0DECF07F0DECFE8
:1016700008F017C0D9FF18C0DAFFDF50096E190E45
:101680000A6E000E0B6E1A0E0C6E000E0D6E1B0E07
:101690000E6E000E0F6E1C0E106E000E116ED0EC52
:1016A0000CF019C003FF1AC004FF1BC001FF1CC0CF
:1016B00002FF20EE05F01750D9261850DA22DF502D
:1016C0000F01056F20EE06F01750D9261850DA22C8
:1016D000DF50066F20EE07F01750D9261850DA2297
:1016E000DF50076F20EE08F01750D9261850DA2285
:1016F000DF50086F20EE09F01750D9261850DA2273
:10170000DF50096F20EE0AF01750D9261850DA2260
:10171000DF500A6F20EE0BF01750D9261850DA224E
:10172000DF500B6F20EE0CF01750D9261850DA223C
:10173000DF500C6F20EE0DF01750D9261850DA222A
:10174000DF500D6F0087A1EF0AF01200000E1A6E35
:1017500060AEADEF0BF0AFEF0BF03BEF0CF062A61D
:10176000B4EF0BF0B6EF0BF0D5EF0BF018C0D9FFCC
:1017700019C0DAFF020EDF6E64CF05F061CF06F00C
:1017800062CF07F063508AEC0DF020EE01F01850A4
:10179000D9261950DA2205C0DEFF06C0DEFF07C0D9
:1017A000DEFF08C0DEFFEEEF0BF018C0D9FF19C056
:1017B000DAFF010EDF6E62CF05F061501FEC0FF013
:1017C00020EE01F01850D9261950DA2205C0DEFFAC
:1017D00006C0DEFF07C0DEFF08C0DEFF20EE05F01A
:1017E0001850D9261950DA2265CFDFFF20EE06F017
:1017F0001850D9261950DA2266CFDFFF20EE07F005
:101800001850D9261950DA2267CFDFFF20EE08F0F2
:101810001850D9261950DA2268CFDFFF20EE09F0E0
:101820001850D9261950DA2269CFDFFF20EE0AF0CE
:101830001850D9261950DA226ACFDFFF20EE0BF0BC
:101840001850D9261950DA226BCFDFFF20EE0CF0AA
:101850001850D9261950DA226CCFDFFF20EE0DF098
:101860001850D9261950DA226DCFDFFF609E010E85
:101870001A6ECEEF0CF00F0130AF41EF0CF043EFDA
:101880000CF0CEEF0CF032A748EF0CF04AEF0CF062
:1018900069EF0CF018C0D9FF19C0DAFF020EDF6E35
:1018A00034CF05F031CF06F032CF07F033518AEC58
:1018B0000DF020EE01F01850D9261950DA2205C09B
:1018C000DEFF06C0DEFF07C0DEFF08C0DEFF82EFDE
:1018D0000CF018C0D9FF19C0DAFF010EDF6E32CF4D
:1018E00005F031511FEC0FF020EE01F01850D92611
:1018F0001950DA2205C0DEFF06C0DEFF07C0DEFF9A
:1019000008C0DEFF20EE05F01850D9261950DA2263
:1019100035CFDFFF20EE06F01850D9261950DA2215
:1019200036CFDFFF20EE07F01850D9261950DA2203
:1019300037CFDFFF20EE08F01850D9261950DA22F1
:1019400038CFDFFF20EE09F01850D9261950DA22DF
:1019500039CFDFFF20EE0AF01850D9261950DA22CD
:101960003ACFDFFF20EE0BF01850D9261950DA22BB
:101970003BCFDFFF20EE0CF01850D9261950DA22A9
:101980003CCFDFFF20EE0DF01850D9261950DA2297
:101990003DCFDFFF0F01309F37EF0CF01A501200E0
:1019A000020E0918D8A4D7EF0CF0D9EF0CF05CEFB9
:1019B0000DF00CC0D9FF0DC0DAFF05C0DFFF05C078
:1019C00012F006C013F007C014F008C015F013C0E1
:1019D00012F014C013F015C014F0156A12C005F00F
:1019E00013C006F014C007F015C008F00AC0D9FFF4
:1019F0000BC0DAFF05C0DFFF05C012F006C013F010
:101A000007C014F008C015F013C012F014C013F092
:101A100015C014F0156A12C005F013C006F014C00A
:101A200007F015C008F00550030B166E05C012F044
:101A300006C013F007C014F008C015F0030ED890CC
:101A40001236133614361536E82E1FEF0DF012C07D
:101A500005F013C006F014C007F015C008F00550DB
:101A6000E00B1624166E1650080F166E1650EB0B70
:101A700010C0D9FF11C0DAFFDF6E05C012F006C03A
:101A800013F007C014F008C015F013C012F014C012
:101A900013F015C014F0156A12C005F013C006F05B
:101AA00014C007F015C008F00EC0D9FF0FC0DAFF50
:101AB00005C0DFFF89EF0DF00AC0D9FF0BC0DAFFC8
:101AC000000EDF6E0CC0D9FF0DC0DAFF000EDF6E16
:101AD00005C012F006C013F007C014F008C015F0DE
:101AE000050ED8901236133614361536E82E71EFDF
:101AF0000DF012C005F013C006F014C007F015C0B9
:101B000008F010C0D9FF11C0DAFF05C0DFFF3DEFBC
:101B10000DF012000D6E000E146E000E156E000E0C
:101B2000166E000E176E0750030B126E0738E84250
:101B3000070B136E0650096E0A6AD89009360A36EA
:101B4000D89009360A36D89009360A3609C014F0FA
:101B50000AC015F0000E15BEFF0E166E176E13505C
:101B60001424146E000E1520156E000E1620166E2D
:101B7000000E1720176E14C009F015C00AF016C029
:101B80000BF017C00CF0020ED89009360A360B364F
:101B90000C36E82EC4EF0DF009C014F00AC015F0A1
:101BA0000BC016F00CC017F012501424146E000E67
:101BB0001520156E000E1620166E000E1720176EDB
:101BC00014C00AF015C00BF016C00CF0096A09C069
:101BD00014F00AC015F00BC016F00CC017F00D5031
:101BE0001424146E000E1520156E000E1620166EAD
:101BF000000E1720176E14C00AF015C00BF016C0A7
:101C00000CF0096A09C014F00AC015F00BC016F0F8
:101C10000CC017F005501424146E000E1520156E1C
:101C2000000E1620166E000E1720176E14C00EF050
:101C300015C00FF016C010F017C011F00EC005F05F
:101C40000FC006F010C007F011C008F01200800E9F
:101C50006F6E6E50E00B800AD8A431EF0EF033EFB8
:101C60000EF029EF0EF0000E726E200E706E000E58
:101C70000E01FA6F000EFB6F000EF86F000EF96F89
:101C8000000EFE6F000EFF6F000EFC6F000EFD6F6A
:101C9000000EE26F000EE36F000EE06F000EE16FCA
:101CA000000EE66F000EE76F000EE46F000EE56FAA
:101CB000000EEA6F000EEB6F000EE86F000EE96F8A
:101CC000000EEE6F000EEF6F000EEC6F000EED6F6A
:101CD000000EF26F000EF36F000EF06F000EF16F4A
:101CE000000EF66F000EF76F000EF46F000EF56F2A
:101CF000070E436FA80E446F010E456FFE0E056E72
:101D0000210E066EF3EC10F0779C768C000E6F6E51
:101D10006ECF07F0E00E0716D8A491EF0EF093EF08
:101D20000EF088EF0EF0120009500A10D8B49BEFA5
:101D30000EF09DEF0EF0A6EF0EF009500A10D8A499
:101D4000A4EF0EF0A6EF0EF0ABEF0EF00750DAECBA
:101D500010F0DEEF0EF020EE09F00950D9260A50FF
:101D6000DA22DE50DE10D8B4B8EF0EF0BAEF0EF083
:101D7000D5EF0EF020EE09F00950D9260A50DA22EC
:101D800010EE03F00950E1260A50E222DE50E65C34
:101D9000E650800A0F6EDE50800A0F58D8B0D3EF9D
:101DA0000EF0D5EF0EF0DEEF0EF020EE03F009504E
:101DB000D9260A50DA22DE2A000EDD22120012C0D5
:101DC000D9FF13C0DAFFDECFF6FFDDCFF7FF080043
:101DD000F550250AD8A4EFEF0EF0F1EF0EF00AEF60
:101DE0000FF012C0D9FF13C0DAFFDE2A000EDD2289
:101DF000000E0001816F000E806F80C034F0826998
:101E0000836912C0D9FF13C0DAFFDE2A000EDD227B
:101E10001EEF0FF012C0D9FF13C0DAFFDECFF6FFBE
:101E2000DDCFF7FF0800F550076E086A10C009F013
:101E300011C00AF094EC0EF001EF0FF012000B6EDF
:101E40000B50096E0A6AD89009360A36D8900936BE
:101E50000A36D89009360A3609C010F00AC011F0C7
:101E6000000E11BEFF0E126E136E05C009F0050EB6
:101E70000A6ED89009320A2E39EF0FF0095010245B
:101E8000106E000E1120116E000E1220126E000E48
:101E90001320136E10C00CF011C00DF012C00EF024
:101EA00013C00FF00CC005F00DC006F00EC007F017
:101EB0000FC008F01200000E0D6E000E0E6E000E28
:101EC0000F6E000E106E05A068EF0FF06AEF0FF0B6
:101ED00072EF0FF009500D260A500E220B500F2200
:101EE0000C501022D89009360A360B360C36D89092
:101EF0000832073206320532055006100710081066
:101F0000D8A485EF0FF087EF0FF063EF0FF00DC04F
:101F100005F00EC006F00FC007F010C008F0120068
:101F200018C01CF019C01DF0A4EF0FF016C010F07F
:101F300017C011F01C0E126E000E136E1AC014F0B2
:101F40001BC015F0DFEC0EF01CC0F6FF1DC0F7FF44
:101F50000800F5500009D8A4B0EF0FF0B2EF0FF071
:101F600096EF0FF0000E176E000E166E1200FA0EAE
:101F7000F66E210EF76E000EF86E0900F5CF3BF0FD
:101F80000900F5CF3CF000EE60F0240EEE6AE806A2
:101F9000FDE100EE26F0130EEE6AE806FDE13D904D
:101FA0003D92000EF86E000108EF08F0080EA76ED3
:101FB000900EAB6E240EAC6E080EAF6E020E7D6EF0
:101FC000000E056E000E066EE9EC10F0000E056EB8
:101FD000000E066EE4EC10F0000E056E000E066EAC
:101FE000EEEC10F0000E386E1200096E09C007F01A
:101FF00007460746C2500718830B0718C26EC280F7
:10200000C282C2B206EF10F008EF10F001EF10F03C
:10201000C450086E076AC3500724056E000E0820DE
:10202000066E1200000EAA6E0B0ECF6EDC0ECE6E88
:102030009E90CE50CFCF07F0086A07C008F0076A1D
:102040000710396E08503A6E9D80FC0E056E210E09
:10205000066EDFEC10F0310ECD6E12009E9039C08E
:1020600001F03AC002F076EC10F0304A312A3150DB
:1020700009E10A0E305CD8A040EF10F042EF10F0FA
:1020800048EF10F049EC10F0000E316E000E306E8B
:1020900012000001AB51AC11D8B451EF10F053EF66
:1020A00010F060EF10F002D860EF10F00500FA6E4B
:1020B000AB51FD6EAC51FE6EF850FF6EFA5012003F
:1020C0001200000E896E000E8A6E000E8B6ECF0E0F
:1020D000926EFB0E936EB30E946E1E0E0F015D6F2B
:1020E000070E5C6F000E5B6FF18E1200CDA47BEFCC
:1020F00010F07DEF10F085EF10F0CD900250CF6E14
:1021000001C0CEFFCD8089EF10F00250CF6E01C02C
:10211000CEFF1200200E206E000E216E000E166EF5
:10212000000E176E1EC018F01FC019F0200E1A6E98
:10213000000E1B6E90EC0FF01200FBEC10F061EC47
:1021400010F0D1EC10F012EC10F0C6EC10F0D6EC60
:102150000FF027EC0EF0120002D8B9EF10F00500D6
:10216000FA6E3250FD6E3350FE6EF850FF6EFA502C
:102170001200779C1200056E9EA8C1EF10F0C3EF0D
:1021800010F0BCEF10F005C0ADFF1200010EC26EE2
:10219000300EC16E9A0EC06E000EC46E000EC36E7D
:1021A0001200600ED36E000ED26E000E9B6E000EFB
:1021B0009A6E1200066E0650BBEC10F0120005C0BD
:1021C000ABF006C0ACF0120005C0A7F006C0A8F046
:1021D000120005C0A9F006C0AAF0120005C0A5F0C3
:1021E00006C0A6F0120005C032F006C033F012009F
:1021F000010E376E1200D09E120002001200120073
:020000040020DA
:08000000FFFFFFFFFFFFFFFF00
:020000040030CA
:0E00000015027F7CFF8991FF0FC00FE00F40BB
:00000001FF
