:040000003AEF00F0E3
:100008004182FACF03F0FBCF04F0F2AC0EEF00F020
:1000180010EF00F034EF00F076AC15EF00F017EFBA
:1000280000F022EF00F077AC1CEF00F01EEF00F0BC
:1000380022EF00F0D1EC0FF034EF00F09DA027EF95
:1000480000F029EF00F034EF00F09EA02EEF00F052
:1000580030EF00F034EF00F063EC0FF034EF00F015
:1000680004C0FBFF03C0FAFF4192110009EF0FF033
:0F1000000043414E20524543454956455200009A
:10101000E0EC0FF03E0E056E200E066E06EC10F0B2
:10102000F28EF28C600E606EA00E0001826F010ED7
:10103000836F000E846F000E856F010E866F000EA9
:10104000876F000E906F000E916F000E926F000E72
:10105000936F000E946F000E956FFE0EEDEC0FF087
:10106000410EEDEC0FF0FE0EEDEC0FF0510EEDEC3D
:101070000FF0FE0EEDEC0FF0460EEDEC0FF0010E52
:101080001E6E100E1F6EBEEC0FF01A0E236E5E0E5B
:10109000226E6E0EE82EFED7222EFCD7232EFAD714
:1010A00000D08F0E186E000E196E2EEC0BF000099A
:1010B000D8B45DEF08F05FEF08F083EF09F00001AE
:1010C0009105901192119311D8A469EF08F06BEF7C
:1010D00008F07FEF08F09551D8B471EF08F073EF86
:1010E00008F079EF08F0000E2D6E010E2C6E83EFE4
:1010F00009F0000E2D6E000E2C6E83EF09F0200E0D
:10110000901908E1910592119311D8A48AEF08F083
:101110008CEF08F0A0EF08F09551D8B492EF08F0EA
:1011200094EF08F09AEF08F0000E2B6E010E2A6E75
:1011300083EF09F0000E2B6E000E2A6E83EF09F08C
:10114000800E901908E1910592119311D8A4ABEF8C
:1011500008F0ADEF08F0C3EF08F095C080F0030E83
:101160008061B5EF08F0B7EF08F0BDEF08F0000EB2
:10117000296E000E286E83EF09F0000E296E010E15
:10118000286E83EF09F083EF09F08B948B8635048A
:10119000D8A4CDEF08F0CFEF08F0D9EF08F00001A8
:1011A0008769810E176E000E186EA1EC09F0000E13
:1011B000356E80A0DEEF08F0E0EF08F0E6EF08F013
:1011C000000E2F6E000E2E6EEAEF08F0000E2F6E4E
:1011D000010E2E6E2C042D10D8B4F1EF08F0F3EFB1
:1011E00008F005EF09F02A502B10D8B4FAEF08F0F8
:1011F000FCEF08F005EF09F028502910D8A403EF00
:1012000009F005EF09F00BEF09F0000E406E020E39
:101210003F6E51EF08F02E502F10D8A412EF09F0B6
:1012200014EF09F09DEF09F0000E406E000E3F6EC6
:1012300051EF08F08B848B962C502D10D8A423EFFF
:1012400009F025EF09F051EF08F02A042B10D8A47B
:101250002CEF09F02EEF09F051EF08F028042910C7
:10126000D8A435EF09F037EF09F051EF08F02E045C
:101270002F10D8A43EEF09F040EF09F014EF09F069
:10128000000E406E010E3F6E51EF08F08B848B967E
:101290003504D8A44EEF09F050EF09F05BEF09F0E8
:1012A000000E0001876F810E176E000E186EA1EC04
:1012B00009F0000E356E2C042D10D8B462EF09F041
:1012C00064EF09F005EF09F02A502B10D8B46BEF4A
:1012D00009F06DEF09F005EF09F028502910D8A4A6
:1012E00074EF09F076EF09F078EF09F005EF09F0F7
:1012F0002E042F10D8A47FEF09F081EF09F09DEFA5
:1013000009F040EF09F03FC022F040C023F0235025
:10131000000AD8B48EEF09F051EF08F02250000A0D
:10132000D8B446EF09F0010AD8B4C5EF08F0030AB3
:10133000D8B41AEF09F051EF08F051EF08F03AEF86
:1013400000F0000E196E000E1A6E000E1B6E000EDD
:101350001C6E0F0120B7AFEF09F0B1EF09F02BEFD2
:101360000AF020EE01F01750D9261850DA22DECF0D
:1013700005F0DECF06F0DECF07F0DECF08F017C0B5
:10138000D9FF18C0DAFFDF50096E190E0A6E000E81
:101390000B6E1A0E0C6E000E0D6E1B0E0E6E000EF6
:1013A0000F6E1C0E106E000E116E58EC0CF019C072
:1013B00023FF1AC024FF1BC021FF1CC022FF20EE08
:1013C00005F01750D9261850DA22DF500F01256F8B
:1013D00020EE06F01750D9261850DA22DF50266F7B
:1013E00020EE07F01750D9261850DA22DF50276F69
:1013F00020EE08F01750D9261850DA22DF50286F57
:1014000020EE09F01750D9261850DA22DF50296F44
:1014100020EE0AF01750D9261850DA22DF502A6F32
:1014200020EE0BF01750D9261850DA22DF502B6F20
:1014300020EE0CF01750D9261850DA22DF502C6F0E
:1014400020EE0DF01750D9261850DA22DF502D6FFC
:1014500020872DEF0BF010B730EF0AF032EF0AF0D3
:10146000ACEF0AF020EE01F01750D9261850DA221E
:10147000DECF05F0DECF06F0DECF07F0DECF08F0DE
:1014800017C0D9FF18C0DAFFDF50096E190E0A6EB7
:10149000000E0B6E1A0E0C6E000E0D6E1B0E0E6EF5
:1014A000000E0F6E1C0E106E000E116E58EC0CF03C
:1014B00019C013FF1AC014FF1BC011FF1CC012FF7C
:1014C00020EE05F01750D9261850DA22DF500F0110
:1014D000156F20EE06F01750D9261850DA22DF508B
:1014E000166F20EE07F01750D9261850DA22DF5079
:1014F000176F20EE08F01750D9261850DA22DF5067
:10150000186F20EE09F01750D9261850DA22DF5054
:10151000196F20EE0AF01750D9261850DA22DF5042
:101520001A6F20EE0BF01750D9261850DA22DF5030
:101530001B6F20EE0CF01750D9261850DA22DF501E
:101540001C6F20EE0DF01750D9261850DA22DF500C
:101550001D6F108729EF0AF000B7B1EF0AF0B3EF63
:101560000AF02DEF0BF020EE01F01750D92618509D
:10157000DA22DECF05F0DECF06F0DECF07F0DECFD9
:1015800008F017C0D9FF18C0DAFFDF50096E190E36
:101590000A6E000E0B6E1A0E0C6E000E0D6E1B0EF8
:1015A0000E6E000E0F6E1C0E106E000E116E58ECBB
:1015B0000CF019C003FF1AC004FF1BC001FF1CC0C0
:1015C00002FF20EE05F01750D9261850DA22DF501E
:1015D0000F01056F20EE06F01750D9261850DA22B9
:1015E000DF50066F20EE07F01750D9261850DA2288
:1015F000DF50076F20EE08F01750D9261850DA2276
:10160000DF50086F20EE09F01750D9261850DA2263
:10161000DF50096F20EE0AF01750D9261850DA2251
:10162000DF500A6F20EE0BF01750D9261850DA223F
:10163000DF500B6F20EE0CF01750D9261850DA222D
:10164000DF500C6F20EE0DF01750D9261850DA221B
:10165000DF500D6F008729EF0AF01200000E1A6E9E
:1016600060AE35EF0BF037EF0BF0C3EF0BF062A677
:101670003CEF0BF03EEF0BF05DEF0BF018C0D9FF25
:1016800019C0DAFF020EDF6E64CF05F061CF06F0FD
:1016900062CF07F0635012EC0DF020EE01F018500D
:1016A000D9261950DA2205C0DEFF06C0DEFF07C0CA
:1016B000DEFF08C0DEFF76EF0BF018C0D9FF19C0BF
:1016C000DAFF010EDF6E62CF05F06150A6EC0EF07E
:1016D00020EE01F01850D9261950DA2205C0DEFF9D
:1016E00006C0DEFF07C0DEFF08C0DEFF20EE05F00B
:1016F0001850D9261950DA2265CFDFFF20EE06F008
:101700001850D9261950DA2266CFDFFF20EE07F0F5
:101710001850D9261950DA2267CFDFFF20EE08F0E3
:101720001850D9261950DA2268CFDFFF20EE09F0D1
:101730001850D9261950DA2269CFDFFF20EE0AF0BF
:101740001850D9261950DA226ACFDFFF20EE0BF0AD
:101750001850D9261950DA226BCFDFFF20EE0CF09B
:101760001850D9261950DA226CCFDFFF20EE0DF089
:101770001850D9261950DA226DCFDFFF609E010E76
:101780001A6E56EF0CF00F0130AFC9EF0BF0CBEF34
:101790000BF056EF0CF032A7D0EF0BF0D2EF0BF0BE
:1017A000F1EF0BF018C0D9FF19C0DAFF020EDF6E9F
:1017B00034CF05F031CF06F032CF07F0335112ECC1
:1017C0000DF020EE01F01850D9261950DA2205C08C
:1017D000DEFF06C0DEFF07C0DEFF08C0DEFF0AEF47
:1017E0000CF018C0D9FF19C0DAFF010EDF6E32CF3E
:1017F00005F03151A6EC0EF020EE01F01850D9267C
:101800001950DA2205C0DEFF06C0DEFF07C0DEFF8A
:1018100008C0DEFF20EE05F01850D9261950DA2254
:1018200035CFDFFF20EE06F01850D9261950DA2206
:1018300036CFDFFF20EE07F01850D9261950DA22F4
:1018400037CFDFFF20EE08F01850D9261950DA22E2
:1018500038CFDFFF20EE09F01850D9261950DA22D0
:1018600039CFDFFF20EE0AF01850D9261950DA22BE
:101870003ACFDFFF20EE0BF01850D9261950DA22AC
:101880003BCFDFFF20EE0CF01850D9261950DA229A
:101890003CCFDFFF20EE0DF01850D9261950DA2288
:1018A0003DCFDFFF0F01309FBFEF0BF01A5012004A
:1018B000020E0918D8A45FEF0CF061EF0CF0E4EF12
:1018C0000CF00CC0D9FF0DC0DAFF05C0DFFF05C06A
:1018D00012F006C013F007C014F008C015F013C0D2
:1018E00012F014C013F015C014F0156A12C005F000
:1018F00013C006F014C007F015C008F00AC0D9FFE5
:101900000BC0DAFF05C0DFFF05C012F006C013F000
:1019100007C014F008C015F013C012F014C013F083
:1019200015C014F0156A12C005F013C006F014C0FB
:1019300007F015C008F00550030B166E05C012F035
:1019400006C013F007C014F008C015F0030ED890BD
:101950001236133614361536E82EA7EF0CF012C0E7
:1019600005F013C006F014C007F015C008F00550CC
:10197000E00B1624166E1650080F166E1650EB0B61
:1019800010C0D9FF11C0DAFFDF6E05C012F006C02B
:1019900013F007C014F008C015F013C012F014C003
:1019A00013F015C014F0156A12C005F013C006F04C
:1019B00014C007F015C008F00EC0D9FF0FC0DAFF41
:1019C00005C0DFFF11EF0DF00AC0D9FF0BC0DAFF31
:1019D000000EDF6E0CC0D9FF0DC0DAFF000EDF6E07
:1019E00005C012F006C013F007C014F008C015F0CF
:1019F000050ED8901236133614361536E82EF9EF48
:101A00000CF012C005F013C006F014C007F015C0AA
:101A100008F010C0D9FF11C0DAFF05C0DFFFC5EF25
:101A20000CF012000D6E000E146E000E156E000EFE
:101A3000166E000E176E0750030B126E0738E84241
:101A4000070B136E0650096E0A6AD89009360A36DB
:101A5000D89009360A36D89009360A3609C014F0EB
:101A60000AC015F0000E15BEFF0E166E176E13504D
:101A70001424146E000E1520156E000E1620166E1E
:101A8000000E1720176E14C009F015C00AF016C01A
:101A90000BF017C00CF0020ED89009360A360B3640
:101AA0000C36E82E4CEF0DF009C014F00AC015F00A
:101AB0000BC016F00CC017F012501424146E000E58
:101AC0001520156E000E1620166E000E1720176ECC
:101AD00014C00AF015C00BF016C00CF0096A09C05A
:101AE00014F00AC015F00BC016F00CC017F00D5022
:101AF0001424146E000E1520156E000E1620166E9E
:101B0000000E1720176E14C00AF015C00BF016C097
:101B10000CF0096A09C014F00AC015F00BC016F0E9
:101B20000CC017F005501424146E000E1520156E0D
:101B3000000E1620166E000E1720176E14C00EF041
:101B400015C00FF016C010F017C011F00EC005F050
:101B50000FC006F010C007F011C008F01200800E90
:101B60006F6E6E50E00B800AD8A4B9EF0DF0BBEF9A
:101B70000DF0B1EF0DF0000E726E200E706E000EC3
:101B80000E01FA6F000EFB6F000EF86F000EF96F7A
:101B9000000EFE6F000EFF6F000EFC6F000EFD6F5B
:101BA000000EE26F000EE36F000EE06F000EE16FBB
:101BB000000EE66F000EE76F000EE46F000EE56F9B
:101BC000000EEA6F000EEB6F000EE86F000EE96F7B
:101BD000000EEE6F000EEF6F000EEC6F000EED6F5B
:101BE000000EF26F000EF36F000EF06F000EF16F3B
:101BF000000EF66F000EF76F000EF46F000EF56F1B
:101C0000070E436FA80E446F010E456F4C0E056E14
:101C1000200E066E1AEC10F0779C768C000E6F6E1C
:101C20006ECF07F0E00E0716D8A419EF0EF01BEFE9
:101C30000EF010EF0EF0120009500A10D8B423EF86
:101C40000EF025EF0EF02EEF0EF009500A10D8A47A
:101C50002CEF0EF02EEF0EF033EF0EF0075001ECEC
:101C600010F066EF0EF020EE09F00950D9260A5068
:101C7000DA22DE50DE10D8B440EF0EF042EF0EF064
:101C80005DEF0EF020EE09F00950D9260A50DA2255
:101C900010EE03F00950E1260A50E222DE50E65C25
:101CA000E650800A0F6EDE50800A0F58D8B05BEF06
:101CB0000EF05DEF0EF066EF0EF020EE03F009502F
:101CC000D9260A50DA22DE2A000EDD22120012C0C6
:101CD000D9FF13C0DAFFDECFF6FFDDCFF7FF080034
:101CE000F550250AD8A477EF0EF079EF0EF091EFBA
:101CF0000EF012C0D9FF13C0DAFFDE2A000EDD227B
:101D0000000E256E000E246E24C034F0266827686D
:101D100012C0D9FF13C0DAFFDE2A000EDD22A5EFC4
:101D20000EF012C0D9FF13C0DAFFDECFF6FFDDCF11
:101D3000F7FF0800F550076E086A10C009F011C0DF
:101D40000AF01CEC0EF088EF0EF012000B6E0B5038
:101D5000096E0A6AD89009360A36D89009360A36CA
:101D6000D89009360A3609C010F00AC011F0000EEA
:101D700011BEFF0E126E136E05C009F0050E0A6E3D
:101D8000D89009320A2EC0EF0EF009501024106EC0
:101D9000000E1120116E000E1220126E000E132084
:101DA000136E10C00CF011C00DF012C00EF013C075
:101DB0000FF00CC005F00DC006F00EC007F00FC00C
:101DC00008F0120018C01CF019C01DF0F6EF0EF05C
:101DD00016C010F017C011F01C0E126E000E136E1C
:101DE0001AC014F01BC015F067EC0EF01CC0F6FF13
:101DF0001DC0F7FF0800F5500009D8A402EF0FF04E
:101E000004EF0FF0E8EF0EF0000E176E000E166EE6
:101E10001200480EF66E200EF76E000EF86E0900E6
:101E2000F5CF3FF00900F5CF40F000EE60F0200E56
:101E3000EE6AE806FDE100EE24F0130EEE6AE80615
:101E4000FDE141904192000EF86E000108EF08F0AC
:101E5000080EA76E900EAB6E240EAC6E080EAF6E21
:101E6000020E7D6E000E056E000E066E10EC10F078
:101E7000000E056E000E066E0BEC10F0000E056EE7
:101E8000000E066E15EC10F0000E366E1200000EFD
:101E9000AA6E0B0ECF6EDC0ECE6E9E90CE50CFCFC4
:101EA00007F0086A07C008F0076A07103D6E08507F
:101EB0003E6E9D804A0E056E200E066E06EC10F0FA
:101EC000310ECD6E12009E903DC001F03EC002F07A
:101ED000AAEC0FF0304A312A315009E10A0E305C89
:101EE000D8A075EF0FF077EF0FF07DEF0FF07EECDD
:101EF0000FF0000E316E000E306E12003B503C10A1
:101F0000D8B485EF0FF087EF0FF094EF0FF002D801
:101F100094EF0FF00500FA6E3B50FD6E3C50FE6EE4
:101F2000F850FF6EFA5012001200000E896E000E7B
:101F30008A6E000E8B6ECF0E926EFB0E936EB30EFA
:101F4000946E1E0E0F015D6F030E5C6F000E5B6FD3
:101F5000F18E1200CDA4AFEF0FF0B1EF0FF0B9EF9B
:101F60000FF0CD900250CF6E01C0CEFFCD80BDEFFF
:101F70000FF00250CF6E01C0CEFF1200200E206E77
:101F8000000E216E000E166E000E176E1EC018F0A9
:101F90001FC019F0200E1A6E000E1B6EE2EC0EF040
:101FA000120002D8DEEF0FF00500FA6E3250FD6E1F
:101FB0003350FE6EF850FF6EFA501200779C1200FC
:101FC00022EC10F095EC0FF0F8EC0FF047EC0FF06E
:101FD00028EC0FF0AFEC0DF01200056E9EA8F3EFA9
:101FE0000FF0F5EF0FF0EEEF0FF005C0ADFF1200B0
:101FF000600ED36E000ED26E000E9B6E000E9A6EB7
:102000001200066E0650EDEC0FF0120005C03BF01A
:1020100006C03CF0120005C037F006C038F01200D0
:1020200005C039F006C03AF0120005C09DF006C0A8
:102030009EF0120005C032F006C033F01200010E0F
:0E204000356E1200D09E120002001200120037
:020000040020DA
:08000000FFFFFFFFFFFFFFFF00
:020000040030CA
:0E00000015027F7CFF8991FF0FC00FE00F40BB
:00000001FF
